{
  "_format": "hh-sol-artifact-1",
  "contractName": "EtherianChronicle",
  "sourceName": "contracts/EtherianChronicles.sol",
  "abi": [
    {
      "inputs": [],
      "stateMutability": "nonpayable",
      "type": "constructor"
    },
    {
      "inputs": [],
      "name": "AlreadyVoted",
      "type": "error"
    },
    {
      "inputs": [],
      "name": "CannotAddChapterToNonActiveStory",
      "type": "error"
    },
    {
      "inputs": [],
      "name": "CannotReferSelf",
      "type": "error"
    },
    {
      "inputs": [],
      "name": "ChapterCannotBeAddedToLiveVote",
      "type": "error"
    },
    {
      "inputs": [],
      "name": "ChapterNotFound",
      "type": "error"
    },
    {
      "inputs": [
        {
          "internalType": "address",
          "name": "sender",
          "type": "address"
        },
        {
          "internalType": "uint256",
          "name": "tokenId",
          "type": "uint256"
        },
        {
          "internalType": "address",
          "name": "owner",
          "type": "address"
        }
      ],
      "name": "ERC721IncorrectOwner",
      "type": "error"
    },
    {
      "inputs": [
        {
          "internalType": "address",
          "name": "operator",
          "type": "address"
        },
        {
          "internalType": "uint256",
          "name": "tokenId",
          "type": "uint256"
        }
      ],
      "name": "ERC721InsufficientApproval",
      "type": "error"
    },
    {
      "inputs": [
        {
          "internalType": "address",
          "name": "approver",
          "type": "address"
        }
      ],
      "name": "ERC721InvalidApprover",
      "type": "error"
    },
    {
      "inputs": [
        {
          "internalType": "address",
          "name": "operator",
          "type": "address"
        }
      ],
      "name": "ERC721InvalidOperator",
      "type": "error"
    },
    {
      "inputs": [
        {
          "internalType": "address",
          "name": "owner",
          "type": "address"
        }
      ],
      "name": "ERC721InvalidOwner",
      "type": "error"
    },
    {
      "inputs": [
        {
          "internalType": "address",
          "name": "receiver",
          "type": "address"
        }
      ],
      "name": "ERC721InvalidReceiver",
      "type": "error"
    },
    {
      "inputs": [
        {
          "internalType": "address",
          "name": "sender",
          "type": "address"
        }
      ],
      "name": "ERC721InvalidSender",
      "type": "error"
    },
    {
      "inputs": [
        {
          "internalType": "uint256",
          "name": "tokenId",
          "type": "uint256"
        }
      ],
      "name": "ERC721NonexistentToken",
      "type": "error"
    },
    {
      "inputs": [],
      "name": "InvalidChapterStatus",
      "type": "error"
    },
    {
      "inputs": [],
      "name": "InvalidChoice",
      "type": "error"
    },
    {
      "inputs": [],
      "name": "InvalidInput",
      "type": "error"
    },
    {
      "inputs": [],
      "name": "InvalidPreviousChapterIndex",
      "type": "error"
    },
    {
      "inputs": [],
      "name": "InvalidStoryStatus",
      "type": "error"
    },
    {
      "inputs": [],
      "name": "NotStoryCollaborator",
      "type": "error"
    },
    {
      "inputs": [],
      "name": "NotStoryOwner",
      "type": "error"
    },
    {
      "inputs": [
        {
          "internalType": "address",
          "name": "owner",
          "type": "address"
        }
      ],
      "name": "OwnableInvalidOwner",
      "type": "error"
    },
    {
      "inputs": [
        {
          "internalType": "address",
          "name": "account",
          "type": "address"
        }
      ],
      "name": "OwnableUnauthorizedAccount",
      "type": "error"
    },
    {
      "inputs": [],
      "name": "PreviousChapterNotResolved",
      "type": "error"
    },
    {
      "inputs": [],
      "name": "ProposalAlreadyVoted",
      "type": "error"
    },
    {
      "inputs": [],
      "name": "ProposalVotePeriodNotOver",
      "type": "error"
    },
    {
      "inputs": [],
      "name": "ReentrancyGuardReentrantCall",
      "type": "error"
    },
    {
      "inputs": [],
      "name": "StoryNotFound",
      "type": "error"
    },
    {
      "inputs": [],
      "name": "Unauthorized",
      "type": "error"
    },
    {
      "inputs": [],
      "name": "UserAlreadyRegistered",
      "type": "error"
    },
    {
      "inputs": [],
      "name": "VotingPeriodNotOver",
      "type": "error"
    },
    {
      "inputs": [],
      "name": "VotingPeriodNotStarted",
      "type": "error"
    },
    {
      "anonymous": false,
      "inputs": [
        {
          "indexed": true,
          "internalType": "address",
          "name": "owner",
          "type": "address"
        },
        {
          "indexed": true,
          "internalType": "address",
          "name": "approved",
          "type": "address"
        },
        {
          "indexed": true,
          "internalType": "uint256",
          "name": "tokenId",
          "type": "uint256"
        }
      ],
      "name": "Approval",
      "type": "event"
    },
    {
      "anonymous": false,
      "inputs": [
        {
          "indexed": true,
          "internalType": "address",
          "name": "owner",
          "type": "address"
        },
        {
          "indexed": true,
          "internalType": "address",
          "name": "operator",
          "type": "address"
        },
        {
          "indexed": false,
          "internalType": "bool",
          "name": "approved",
          "type": "bool"
        }
      ],
      "name": "ApprovalForAll",
      "type": "event"
    },
    {
      "anonymous": false,
      "inputs": [
        {
          "indexed": false,
          "internalType": "uint256",
          "name": "_fromTokenId",
          "type": "uint256"
        },
        {
          "indexed": false,
          "internalType": "uint256",
          "name": "_toTokenId",
          "type": "uint256"
        }
      ],
      "name": "BatchMetadataUpdate",
      "type": "event"
    },
    {
      "anonymous": false,
      "inputs": [
        {
          "indexed": true,
          "internalType": "uint256",
          "name": "storyId",
          "type": "uint256"
        },
        {
          "indexed": true,
          "internalType": "uint256",
          "name": "chapterId",
          "type": "uint256"
        },
        {
          "indexed": false,
          "internalType": "string",
          "name": "ipfsHash",
          "type": "string"
        },
        {
          "indexed": false,
          "internalType": "uint256",
          "name": "voteEndTime",
          "type": "uint256"
        }
      ],
      "name": "ChapterAdded",
      "type": "event"
    },
    {
      "anonymous": false,
      "inputs": [
        {
          "indexed": true,
          "internalType": "uint256",
          "name": "storyId",
          "type": "uint256"
        },
        {
          "indexed": true,
          "internalType": "uint256",
          "name": "chapterId",
          "type": "uint256"
        },
        {
          "indexed": false,
          "internalType": "uint256",
          "name": "winningChoiceIndex",
          "type": "uint256"
        },
        {
          "indexed": false,
          "internalType": "string",
          "name": "winningChoiceText",
          "type": "string"
        }
      ],
      "name": "ChapterResolved",
      "type": "event"
    },
    {
      "anonymous": false,
      "inputs": [
        {
          "indexed": true,
          "internalType": "uint256",
          "name": "storyId",
          "type": "uint256"
        },
        {
          "indexed": true,
          "internalType": "address",
          "name": "collaborator",
          "type": "address"
        }
      ],
      "name": "CollaboratorAdded",
      "type": "event"
    },
    {
      "anonymous": false,
      "inputs": [
        {
          "indexed": true,
          "internalType": "address",
          "name": "user",
          "type": "address"
        },
        {
          "indexed": false,
          "internalType": "uint256",
          "name": "position",
          "type": "uint256"
        },
        {
          "indexed": false,
          "internalType": "uint256",
          "name": "points",
          "type": "uint256"
        }
      ],
      "name": "LeaderboardUpdated",
      "type": "event"
    },
    {
      "anonymous": false,
      "inputs": [
        {
          "indexed": true,
          "internalType": "address",
          "name": "recipient",
          "type": "address"
        },
        {
          "indexed": true,
          "internalType": "uint256",
          "name": "storyId",
          "type": "uint256"
        },
        {
          "indexed": true,
          "internalType": "uint256",
          "name": "chapterId",
          "type": "uint256"
        },
        {
          "indexed": false,
          "internalType": "uint256",
          "name": "tokenId",
          "type": "uint256"
        }
      ],
      "name": "LoreFragmentMinted",
      "type": "event"
    },
    {
      "anonymous": false,
      "inputs": [
        {
          "indexed": false,
          "internalType": "uint256",
          "name": "_tokenId",
          "type": "uint256"
        }
      ],
      "name": "MetadataUpdate",
      "type": "event"
    },
    {
      "anonymous": false,
      "inputs": [
        {
          "indexed": true,
          "internalType": "address",
          "name": "previousOwner",
          "type": "address"
        },
        {
          "indexed": true,
          "internalType": "address",
          "name": "newOwner",
          "type": "address"
        }
      ],
      "name": "OwnershipTransferred",
      "type": "event"
    },
    {
      "anonymous": false,
      "inputs": [
        {
          "indexed": true,
          "internalType": "address",
          "name": "user",
          "type": "address"
        },
        {
          "indexed": false,
          "internalType": "uint256",
          "name": "points",
          "type": "uint256"
        },
        {
          "indexed": false,
          "internalType": "string",
          "name": "reason",
          "type": "string"
        }
      ],
      "name": "PointsAwarded",
      "type": "event"
    },
    {
      "anonymous": false,
      "inputs": [
        {
          "indexed": true,
          "internalType": "uint256",
          "name": "storyId",
          "type": "uint256"
        },
        {
          "indexed": true,
          "internalType": "address",
          "name": "voter",
          "type": "address"
        },
        {
          "indexed": false,
          "internalType": "enum EtherianChronicle.ProposalVoteType",
          "name": "voteType",
          "type": "uint8"
        }
      ],
      "name": "ProposalVoteCast",
      "type": "event"
    },
    {
      "anonymous": false,
      "inputs": [
        {
          "indexed": true,
          "internalType": "uint256",
          "name": "storyId",
          "type": "uint256"
        }
      ],
      "name": "StoryApproved",
      "type": "event"
    },
    {
      "anonymous": false,
      "inputs": [
        {
          "indexed": true,
          "internalType": "uint256",
          "name": "storyId",
          "type": "uint256"
        },
        {
          "indexed": false,
          "internalType": "uint256",
          "name": "totalChapters",
          "type": "uint256"
        },
        {
          "indexed": false,
          "internalType": "uint256",
          "name": "totalParticipants",
          "type": "uint256"
        }
      ],
      "name": "StoryCompleted",
      "type": "event"
    },
    {
      "anonymous": false,
      "inputs": [
        {
          "indexed": true,
          "internalType": "address",
          "name": "user",
          "type": "address"
        },
        {
          "indexed": true,
          "internalType": "uint256",
          "name": "storyId",
          "type": "uint256"
        },
        {
          "indexed": false,
          "internalType": "uint256",
          "name": "bonusPoints",
          "type": "uint256"
        }
      ],
      "name": "StoryCompletionBonusAwarded",
      "type": "event"
    },
    {
      "anonymous": false,
      "inputs": [
        {
          "indexed": true,
          "internalType": "uint256",
          "name": "storyId",
          "type": "uint256"
        },
        {
          "indexed": true,
          "internalType": "address",
          "name": "writer",
          "type": "address"
        },
        {
          "indexed": false,
          "internalType": "string",
          "name": "title",
          "type": "string"
        },
        {
          "indexed": false,
          "internalType": "string",
          "name": "summary",
          "type": "string"
        },
        {
          "indexed": false,
          "internalType": "string",
          "name": "ipfsHashImage",
          "type": "string"
        }
      ],
      "name": "StoryProposed",
      "type": "event"
    },
    {
      "anonymous": false,
      "inputs": [
        {
          "indexed": true,
          "internalType": "uint256",
          "name": "storyId",
          "type": "uint256"
        }
      ],
      "name": "StoryRejected",
      "type": "event"
    },
    {
      "anonymous": false,
      "inputs": [
        {
          "indexed": true,
          "internalType": "address",
          "name": "from",
          "type": "address"
        },
        {
          "indexed": true,
          "internalType": "address",
          "name": "to",
          "type": "address"
        },
        {
          "indexed": true,
          "internalType": "uint256",
          "name": "tokenId",
          "type": "uint256"
        }
      ],
      "name": "Transfer",
      "type": "event"
    },
    {
      "anonymous": false,
      "inputs": [
        {
          "indexed": true,
          "internalType": "address",
          "name": "user",
          "type": "address"
        },
        {
          "indexed": true,
          "internalType": "address",
          "name": "referrer",
          "type": "address"
        }
      ],
      "name": "UserRegistered",
      "type": "event"
    },
    {
      "anonymous": false,
      "inputs": [
        {
          "indexed": true,
          "internalType": "uint256",
          "name": "storyId",
          "type": "uint256"
        },
        {
          "indexed": true,
          "internalType": "uint256",
          "name": "chapterId",
          "type": "uint256"
        },
        {
          "indexed": true,
          "internalType": "address",
          "name": "voter",
          "type": "address"
        },
        {
          "indexed": false,
          "internalType": "uint256",
          "name": "choiceIndex",
          "type": "uint256"
        }
      ],
      "name": "VoteCast",
      "type": "event"
    },
    {
      "inputs": [],
      "name": "CHAPTER_VOTING_PERIOD",
      "outputs": [
        {
          "internalType": "uint256",
          "name": "",
          "type": "uint256"
        }
      ],
      "stateMutability": "view",
      "type": "function"
    },
    {
      "inputs": [],
      "name": "EARLY_VOTE_PERIOD",
      "outputs": [
        {
          "internalType": "uint256",
          "name": "",
          "type": "uint256"
        }
      ],
      "stateMutability": "view",
      "type": "function"
    },
    {
      "inputs": [],
      "name": "POINTS_EARLY_VOTE",
      "outputs": [
        {
          "internalType": "uint256",
          "name": "",
          "type": "uint256"
        }
      ],
      "stateMutability": "view",
      "type": "function"
    },
    {
      "inputs": [],
      "name": "POINTS_REFERRAL",
      "outputs": [
        {
          "internalType": "uint256",
          "name": "",
          "type": "uint256"
        }
      ],
      "stateMutability": "view",
      "type": "function"
    },
    {
      "inputs": [],
      "name": "POINTS_STORY_COMPLETION",
      "outputs": [
        {
          "internalType": "uint256",
          "name": "",
          "type": "uint256"
        }
      ],
      "stateMutability": "view",
      "type": "function"
    },
    {
      "inputs": [],
      "name": "POINTS_WINNING_VOTE",
      "outputs": [
        {
          "internalType": "uint256",
          "name": "",
          "type": "uint256"
        }
      ],
      "stateMutability": "view",
      "type": "function"
    },
    {
      "inputs": [],
      "name": "PROPOSAL_VOTING_PERIOD",
      "outputs": [
        {
          "internalType": "uint256",
          "name": "",
          "type": "uint256"
        }
      ],
      "stateMutability": "view",
      "type": "function"
    },
    {
      "inputs": [
        {
          "internalType": "uint256",
          "name": "_storyId",
          "type": "uint256"
        },
        {
          "internalType": "uint256",
          "name": "_previousChapterIndex",
          "type": "uint256"
        },
        {
          "internalType": "uint256",
          "name": "_previousChapterWinningChoiceIndex",
          "type": "uint256"
        },
        {
          "internalType": "string",
          "name": "_ipfsHash",
          "type": "string"
        },
        {
          "internalType": "string[]",
          "name": "_choices",
          "type": "string[]"
        }
      ],
      "name": "addChapter",
      "outputs": [],
      "stateMutability": "nonpayable",
      "type": "function"
    },
    {
      "inputs": [
        {
          "internalType": "uint256",
          "name": "_storyId",
          "type": "uint256"
        },
        {
          "internalType": "address",
          "name": "_collaboratorAddress",
          "type": "address"
        }
      ],
      "name": "addCollaborator",
      "outputs": [],
      "stateMutability": "nonpayable",
      "type": "function"
    },
    {
      "inputs": [
        {
          "internalType": "address",
          "name": "to",
          "type": "address"
        },
        {
          "internalType": "uint256",
          "name": "tokenId",
          "type": "uint256"
        }
      ],
      "name": "approve",
      "outputs": [],
      "stateMutability": "nonpayable",
      "type": "function"
    },
    {
      "inputs": [
        {
          "internalType": "address",
          "name": "owner",
          "type": "address"
        }
      ],
      "name": "balanceOf",
      "outputs": [
        {
          "internalType": "uint256",
          "name": "",
          "type": "uint256"
        }
      ],
      "stateMutability": "view",
      "type": "function"
    },
    {
      "inputs": [
        {
          "internalType": "uint256",
          "name": "_storyId",
          "type": "uint256"
        },
        {
          "internalType": "address",
          "name": "_user",
          "type": "address"
        }
      ],
      "name": "canClaimCompletionBonus",
      "outputs": [
        {
          "internalType": "bool",
          "name": "",
          "type": "bool"
        }
      ],
      "stateMutability": "view",
      "type": "function"
    },
    {
      "inputs": [
        {
          "internalType": "uint256",
          "name": "_storyId",
          "type": "uint256"
        },
        {
          "internalType": "uint256",
          "name": "_chapterIndex",
          "type": "uint256"
        },
        {
          "internalType": "address",
          "name": "_user",
          "type": "address"
        }
      ],
      "name": "canClaimFragment",
      "outputs": [
        {
          "internalType": "bool",
          "name": "",
          "type": "bool"
        }
      ],
      "stateMutability": "view",
      "type": "function"
    },
    {
      "inputs": [
        {
          "internalType": "uint256",
          "name": "_storyId",
          "type": "uint256"
        },
        {
          "internalType": "address",
          "name": "_addr",
          "type": "address"
        }
      ],
      "name": "checkIsCollaborator",
      "outputs": [
        {
          "internalType": "bool",
          "name": "",
          "type": "bool"
        }
      ],
      "stateMutability": "view",
      "type": "function"
    },
    {
      "inputs": [
        {
          "internalType": "uint256",
          "name": "_storyId",
          "type": "uint256"
        }
      ],
      "name": "claimStoryCompletionBonus",
      "outputs": [],
      "stateMutability": "nonpayable",
      "type": "function"
    },
    {
      "inputs": [
        {
          "internalType": "uint256",
          "name": "_storyId",
          "type": "uint256"
        },
        {
          "internalType": "uint256",
          "name": "_chapterIndex",
          "type": "uint256"
        }
      ],
      "name": "claimWinnerFragment",
      "outputs": [],
      "stateMutability": "nonpayable",
      "type": "function"
    },
    {
      "inputs": [
        {
          "internalType": "string",
          "name": "_title",
          "type": "string"
        },
        {
          "internalType": "string",
          "name": "_summary",
          "type": "string"
        },
        {
          "internalType": "string",
          "name": "_ipfsHashImage",
          "type": "string"
        },
        {
          "internalType": "string",
          "name": "_ipfsHashChapter1Content",
          "type": "string"
        },
        {
          "internalType": "string[]",
          "name": "_chapter1Choices",
          "type": "string[]"
        },
        {
          "internalType": "address[]",
          "name": "_collaborators",
          "type": "address[]"
        }
      ],
      "name": "createStoryProposal",
      "outputs": [],
      "stateMutability": "nonpayable",
      "type": "function"
    },
    {
      "inputs": [
        {
          "internalType": "uint256",
          "name": "",
          "type": "uint256"
        },
        {
          "internalType": "uint256",
          "name": "",
          "type": "uint256"
        },
        {
          "internalType": "address",
          "name": "",
          "type": "address"
        }
      ],
      "name": "earlyVoters",
      "outputs": [
        {
          "internalType": "bool",
          "name": "",
          "type": "bool"
        }
      ],
      "stateMutability": "view",
      "type": "function"
    },
    {
      "inputs": [
        {
          "internalType": "uint256",
          "name": "_storyId",
          "type": "uint256"
        }
      ],
      "name": "endStory",
      "outputs": [],
      "stateMutability": "nonpayable",
      "type": "function"
    },
    {
      "inputs": [
        {
          "internalType": "uint256",
          "name": "_tokenId",
          "type": "uint256"
        }
      ],
      "name": "generateTokenURI",
      "outputs": [
        {
          "internalType": "string",
          "name": "",
          "type": "string"
        }
      ],
      "stateMutability": "view",
      "type": "function"
    },
    {
      "inputs": [
        {
          "internalType": "uint256",
          "name": "tokenId",
          "type": "uint256"
        }
      ],
      "name": "getApproved",
      "outputs": [
        {
          "internalType": "address",
          "name": "",
          "type": "address"
        }
      ],
      "stateMutability": "view",
      "type": "function"
    },
    {
      "inputs": [
        {
          "internalType": "uint256",
          "name": "_storyId",
          "type": "uint256"
        },
        {
          "internalType": "uint256",
          "name": "_chapterIndex",
          "type": "uint256"
        }
      ],
      "name": "getChapter",
      "outputs": [
        {
          "internalType": "uint256",
          "name": "chapterId",
          "type": "uint256"
        },
        {
          "internalType": "string",
          "name": "ipfsHash",
          "type": "string"
        },
        {
          "components": [
            {
              "internalType": "string",
              "name": "text",
              "type": "string"
            },
            {
              "internalType": "uint256",
              "name": "voteCount",
              "type": "uint256"
            },
            {
              "internalType": "uint256",
              "name": "nextChapterIndex",
              "type": "uint256"
            }
          ],
          "internalType": "struct EtherianChronicle.Choice[]",
          "name": "choices",
          "type": "tuple[]"
        },
        {
          "internalType": "uint256",
          "name": "createdAt",
          "type": "uint256"
        },
        {
          "internalType": "uint256",
          "name": "voteEndTime",
          "type": "uint256"
        },
        {
          "internalType": "uint256",
          "name": "winningChoiceIndex",
          "type": "uint256"
        },
        {
          "internalType": "bool",
          "name": "isResolved",
          "type": "bool"
        },
        {
          "internalType": "uint256",
          "name": "voteCountSum",
          "type": "uint256"
        }
      ],
      "stateMutability": "view",
      "type": "function"
    },
    {
      "inputs": [
        {
          "internalType": "uint256",
          "name": "_storyId",
          "type": "uint256"
        },
        {
          "internalType": "uint256",
          "name": "_chapterIndex",
          "type": "uint256"
        }
      ],
      "name": "getChapterChoices",
      "outputs": [
        {
          "components": [
            {
              "internalType": "string",
              "name": "text",
              "type": "string"
            },
            {
              "internalType": "uint256",
              "name": "voteCount",
              "type": "uint256"
            },
            {
              "internalType": "uint256",
              "name": "nextChapterIndex",
              "type": "uint256"
            }
          ],
          "internalType": "struct EtherianChronicle.Choice[]",
          "name": "",
          "type": "tuple[]"
        }
      ],
      "stateMutability": "view",
      "type": "function"
    },
    {
      "inputs": [
        {
          "internalType": "uint256",
          "name": "_storyId",
          "type": "uint256"
        }
      ],
      "name": "getCurrentChapterIndex",
      "outputs": [
        {
          "internalType": "uint256",
          "name": "",
          "type": "uint256"
        }
      ],
      "stateMutability": "view",
      "type": "function"
    },
    {
      "inputs": [
        {
          "internalType": "uint256",
          "name": "_tokenId",
          "type": "uint256"
        }
      ],
      "name": "getFragmentData",
      "outputs": [
        {
          "components": [
            {
              "internalType": "uint256",
              "name": "storyId",
              "type": "uint256"
            },
            {
              "internalType": "uint256",
              "name": "chapterId",
              "type": "uint256"
            },
            {
              "internalType": "uint256",
              "name": "choiceIndex",
              "type": "uint256"
            },
            {
              "internalType": "uint256",
              "name": "mintTimestamp",
              "type": "uint256"
            },
            {
              "internalType": "uint256",
              "name": "userPointsAtMint",
              "type": "uint256"
            },
            {
              "internalType": "enum EtherianChronicle.RarityTier",
              "name": "rarity",
              "type": "uint8"
            }
          ],
          "internalType": "struct EtherianChronicle.LoreFragmentData",
          "name": "",
          "type": "tuple"
        }
      ],
      "stateMutability": "view",
      "type": "function"
    },
    {
      "inputs": [
        {
          "internalType": "uint256",
          "name": "_start",
          "type": "uint256"
        },
        {
          "internalType": "uint256",
          "name": "_count",
          "type": "uint256"
        }
      ],
      "name": "getLeaderboard",
      "outputs": [
        {
          "components": [
            {
              "internalType": "address",
              "name": "user",
              "type": "address"
            },
            {
              "internalType": "uint256",
              "name": "points",
              "type": "uint256"
            },
            {
              "internalType": "uint256",
              "name": "winningVotes",
              "type": "uint256"
            },
            {
              "internalType": "uint256",
              "name": "storiesParticipated",
              "type": "uint256"
            },
            {
              "internalType": "uint256",
              "name": "referralCount",
              "type": "uint256"
            }
          ],
          "internalType": "struct EtherianChronicle.LeaderboardEntry[]",
          "name": "",
          "type": "tuple[]"
        }
      ],
      "stateMutability": "view",
      "type": "function"
    },
    {
      "inputs": [
        {
          "internalType": "uint256",
          "name": "_storyId",
          "type": "uint256"
        }
      ],
      "name": "getProposalInfo",
      "outputs": [
        {
          "internalType": "uint256",
          "name": "proposalVoteEndTime",
          "type": "uint256"
        },
        {
          "internalType": "uint256",
          "name": "proposalYesVotes",
          "type": "uint256"
        },
        {
          "internalType": "uint256",
          "name": "proposalNoVotes",
          "type": "uint256"
        },
        {
          "internalType": "bool",
          "name": "isVotingActive",
          "type": "bool"
        }
      ],
      "stateMutability": "view",
      "type": "function"
    },
    {
      "inputs": [
        {
          "internalType": "uint256",
          "name": "_storyId",
          "type": "uint256"
        }
      ],
      "name": "getProposalVoteCounts",
      "outputs": [
        {
          "internalType": "uint256",
          "name": "yesVotes",
          "type": "uint256"
        },
        {
          "internalType": "uint256",
          "name": "noVotes",
          "type": "uint256"
        }
      ],
      "stateMutability": "view",
      "type": "function"
    },
    {
      "inputs": [
        {
          "internalType": "uint256",
          "name": "_storyId",
          "type": "uint256"
        }
      ],
      "name": "getStoryCollaborators",
      "outputs": [
        {
          "internalType": "address[]",
          "name": "",
          "type": "address[]"
        }
      ],
      "stateMutability": "view",
      "type": "function"
    },
    {
      "inputs": [
        {
          "internalType": "uint256",
          "name": "_storyId",
          "type": "uint256"
        }
      ],
      "name": "getStoryDetails",
      "outputs": [
        {
          "internalType": "uint256",
          "name": "storyId",
          "type": "uint256"
        },
        {
          "internalType": "address",
          "name": "writer",
          "type": "address"
        },
        {
          "internalType": "string",
          "name": "title",
          "type": "string"
        },
        {
          "internalType": "string",
          "name": "summary",
          "type": "string"
        },
        {
          "internalType": "string",
          "name": "ipfsHashImage",
          "type": "string"
        },
        {
          "internalType": "address[]",
          "name": "collaborators",
          "type": "address[]"
        },
        {
          "internalType": "enum EtherianChronicle.StoryStatus",
          "name": "status",
          "type": "uint8"
        },
        {
          "internalType": "uint256",
          "name": "createdAt",
          "type": "uint256"
        },
        {
          "internalType": "uint256",
          "name": "proposalVoteEndTime",
          "type": "uint256"
        },
        {
          "internalType": "uint256",
          "name": "proposalYesVotes",
          "type": "uint256"
        },
        {
          "internalType": "uint256",
          "name": "proposalNoVotes",
          "type": "uint256"
        },
        {
          "internalType": "uint256",
          "name": "currentChapterIndex",
          "type": "uint256"
        },
        {
          "internalType": "uint256",
          "name": "totalChapters",
          "type": "uint256"
        }
      ],
      "stateMutability": "view",
      "type": "function"
    },
    {
      "inputs": [
        {
          "internalType": "uint256",
          "name": "_storyId",
          "type": "uint256"
        }
      ],
      "name": "getStoryStatus",
      "outputs": [
        {
          "internalType": "enum EtherianChronicle.StoryStatus",
          "name": "",
          "type": "uint8"
        }
      ],
      "stateMutability": "view",
      "type": "function"
    },
    {
      "inputs": [
        {
          "internalType": "uint256",
          "name": "_storyId",
          "type": "uint256"
        }
      ],
      "name": "getTotalChapters",
      "outputs": [
        {
          "internalType": "uint256",
          "name": "",
          "type": "uint256"
        }
      ],
      "stateMutability": "view",
      "type": "function"
    },
    {
      "inputs": [],
      "name": "getTotalStories",
      "outputs": [
        {
          "internalType": "uint256",
          "name": "",
          "type": "uint256"
        }
      ],
      "stateMutability": "view",
      "type": "function"
    },
    {
      "inputs": [
        {
          "internalType": "address",
          "name": "_user",
          "type": "address"
        }
      ],
      "name": "getUserFragments",
      "outputs": [
        {
          "internalType": "uint256[]",
          "name": "",
          "type": "uint256[]"
        }
      ],
      "stateMutability": "view",
      "type": "function"
    },
    {
      "inputs": [
        {
          "internalType": "address",
          "name": "_user",
          "type": "address"
        }
      ],
      "name": "getUserProfile",
      "outputs": [
        {
          "components": [
            {
              "internalType": "uint256",
              "name": "totalPoints",
              "type": "uint256"
            },
            {
              "internalType": "uint256",
              "name": "storiesParticipated",
              "type": "uint256"
            },
            {
              "internalType": "uint256",
              "name": "winningVotes",
              "type": "uint256"
            },
            {
              "internalType": "address",
              "name": "referrer",
              "type": "address"
            },
            {
              "internalType": "uint256",
              "name": "referralCount",
              "type": "uint256"
            },
            {
              "internalType": "bool",
              "name": "isRegistered",
              "type": "bool"
            },
            {
              "internalType": "uint256",
              "name": "registeredAt",
              "type": "uint256"
            }
          ],
          "internalType": "struct EtherianChronicle.UserProfile",
          "name": "",
          "type": "tuple"
        }
      ],
      "stateMutability": "view",
      "type": "function"
    },
    {
      "inputs": [
        {
          "internalType": "uint256",
          "name": "_storyId",
          "type": "uint256"
        },
        {
          "internalType": "address",
          "name": "_voter",
          "type": "address"
        }
      ],
      "name": "getUserProposalVote",
      "outputs": [
        {
          "internalType": "enum EtherianChronicle.ProposalVoteType",
          "name": "",
          "type": "uint8"
        }
      ],
      "stateMutability": "view",
      "type": "function"
    },
    {
      "inputs": [
        {
          "internalType": "address",
          "name": "_user",
          "type": "address"
        }
      ],
      "name": "getUserRarityTier",
      "outputs": [
        {
          "internalType": "enum EtherianChronicle.RarityTier",
          "name": "",
          "type": "uint8"
        }
      ],
      "stateMutability": "view",
      "type": "function"
    },
    {
      "inputs": [],
      "name": "getVotingPeriods",
      "outputs": [
        {
          "internalType": "uint256",
          "name": "proposalPeriod",
          "type": "uint256"
        },
        {
          "internalType": "uint256",
          "name": "chapterPeriod",
          "type": "uint256"
        }
      ],
      "stateMutability": "pure",
      "type": "function"
    },
    {
      "inputs": [
        {
          "internalType": "uint256",
          "name": "",
          "type": "uint256"
        },
        {
          "internalType": "address",
          "name": "",
          "type": "address"
        }
      ],
      "name": "hasClaimedCompletionBonus",
      "outputs": [
        {
          "internalType": "bool",
          "name": "",
          "type": "bool"
        }
      ],
      "stateMutability": "view",
      "type": "function"
    },
    {
      "inputs": [
        {
          "internalType": "uint256",
          "name": "",
          "type": "uint256"
        },
        {
          "internalType": "uint256",
          "name": "",
          "type": "uint256"
        },
        {
          "internalType": "address",
          "name": "",
          "type": "address"
        }
      ],
      "name": "hasClaimedFragment",
      "outputs": [
        {
          "internalType": "bool",
          "name": "",
          "type": "bool"
        }
      ],
      "stateMutability": "view",
      "type": "function"
    },
    {
      "inputs": [
        {
          "internalType": "uint256",
          "name": "_storyId",
          "type": "uint256"
        },
        {
          "internalType": "uint256",
          "name": "_chapterIndex",
          "type": "uint256"
        },
        {
          "internalType": "address",
          "name": "_voter",
          "type": "address"
        }
      ],
      "name": "hasVotedOnChapter",
      "outputs": [
        {
          "internalType": "bool",
          "name": "",
          "type": "bool"
        }
      ],
      "stateMutability": "view",
      "type": "function"
    },
    {
      "inputs": [
        {
          "internalType": "uint256",
          "name": "_storyId",
          "type": "uint256"
        },
        {
          "internalType": "address",
          "name": "_voter",
          "type": "address"
        }
      ],
      "name": "hasVotedOnProposal",
      "outputs": [
        {
          "internalType": "bool",
          "name": "",
          "type": "bool"
        }
      ],
      "stateMutability": "view",
      "type": "function"
    },
    {
      "inputs": [
        {
          "internalType": "address",
          "name": "owner",
          "type": "address"
        },
        {
          "internalType": "address",
          "name": "operator",
          "type": "address"
        }
      ],
      "name": "isApprovedForAll",
      "outputs": [
        {
          "internalType": "bool",
          "name": "",
          "type": "bool"
        }
      ],
      "stateMutability": "view",
      "type": "function"
    },
    {
      "inputs": [
        {
          "internalType": "uint256",
          "name": "_storyId",
          "type": "uint256"
        },
        {
          "internalType": "uint256",
          "name": "_chapterIndex",
          "type": "uint256"
        }
      ],
      "name": "isChapterVotingActive",
      "outputs": [
        {
          "internalType": "bool",
          "name": "",
          "type": "bool"
        }
      ],
      "stateMutability": "view",
      "type": "function"
    },
    {
      "inputs": [
        {
          "internalType": "uint256",
          "name": "",
          "type": "uint256"
        }
      ],
      "name": "leaderboard",
      "outputs": [
        {
          "internalType": "address",
          "name": "user",
          "type": "address"
        },
        {
          "internalType": "uint256",
          "name": "points",
          "type": "uint256"
        },
        {
          "internalType": "uint256",
          "name": "winningVotes",
          "type": "uint256"
        },
        {
          "internalType": "uint256",
          "name": "storiesParticipated",
          "type": "uint256"
        },
        {
          "internalType": "uint256",
          "name": "referralCount",
          "type": "uint256"
        }
      ],
      "stateMutability": "view",
      "type": "function"
    },
    {
      "inputs": [],
      "name": "leaderboardCount",
      "outputs": [
        {
          "internalType": "uint256",
          "name": "",
          "type": "uint256"
        }
      ],
      "stateMutability": "view",
      "type": "function"
    },
    {
      "inputs": [
        {
          "internalType": "uint256",
          "name": "",
          "type": "uint256"
        }
      ],
      "name": "loreFragmentData",
      "outputs": [
        {
          "internalType": "uint256",
          "name": "storyId",
          "type": "uint256"
        },
        {
          "internalType": "uint256",
          "name": "chapterId",
          "type": "uint256"
        },
        {
          "internalType": "uint256",
          "name": "choiceIndex",
          "type": "uint256"
        },
        {
          "internalType": "uint256",
          "name": "mintTimestamp",
          "type": "uint256"
        },
        {
          "internalType": "uint256",
          "name": "userPointsAtMint",
          "type": "uint256"
        },
        {
          "internalType": "enum EtherianChronicle.RarityTier",
          "name": "rarity",
          "type": "uint8"
        }
      ],
      "stateMutability": "view",
      "type": "function"
    },
    {
      "inputs": [
        {
          "internalType": "address",
          "name": "_recipient",
          "type": "address"
        },
        {
          "internalType": "uint256",
          "name": "_storyId",
          "type": "uint256"
        },
        {
          "internalType": "uint256",
          "name": "_chapterId",
          "type": "uint256"
        },
        {
          "internalType": "string",
          "name": "_tokenURI",
          "type": "string"
        }
      ],
      "name": "mintLoreFragment",
      "outputs": [],
      "stateMutability": "nonpayable",
      "type": "function"
    },
    {
      "inputs": [],
      "name": "name",
      "outputs": [
        {
          "internalType": "string",
          "name": "",
          "type": "string"
        }
      ],
      "stateMutability": "view",
      "type": "function"
    },
    {
      "inputs": [],
      "name": "owner",
      "outputs": [
        {
          "internalType": "address",
          "name": "",
          "type": "address"
        }
      ],
      "stateMutability": "view",
      "type": "function"
    },
    {
      "inputs": [
        {
          "internalType": "uint256",
          "name": "tokenId",
          "type": "uint256"
        }
      ],
      "name": "ownerOf",
      "outputs": [
        {
          "internalType": "address",
          "name": "",
          "type": "address"
        }
      ],
      "stateMutability": "view",
      "type": "function"
    },
    {
      "inputs": [
        {
          "internalType": "uint256",
          "name": "_storyId",
          "type": "uint256"
        }
      ],
      "name": "pauseStory",
      "outputs": [],
      "stateMutability": "nonpayable",
      "type": "function"
    },
    {
      "inputs": [
        {
          "internalType": "address",
          "name": "_referrer",
          "type": "address"
        }
      ],
      "name": "registerUser",
      "outputs": [],
      "stateMutability": "nonpayable",
      "type": "function"
    },
    {
      "inputs": [],
      "name": "renounceOwnership",
      "outputs": [],
      "stateMutability": "nonpayable",
      "type": "function"
    },
    {
      "inputs": [
        {
          "internalType": "uint256",
          "name": "_storyId",
          "type": "uint256"
        },
        {
          "internalType": "uint256",
          "name": "_chapterIndex",
          "type": "uint256"
        }
      ],
      "name": "resolveChapter",
      "outputs": [],
      "stateMutability": "nonpayable",
      "type": "function"
    },
    {
      "inputs": [
        {
          "internalType": "uint256",
          "name": "_storyId",
          "type": "uint256"
        }
      ],
      "name": "resolveProposal",
      "outputs": [],
      "stateMutability": "nonpayable",
      "type": "function"
    },
    {
      "inputs": [
        {
          "internalType": "uint256",
          "name": "_storyId",
          "type": "uint256"
        }
      ],
      "name": "resumeStory",
      "outputs": [],
      "stateMutability": "nonpayable",
      "type": "function"
    },
    {
      "inputs": [
        {
          "internalType": "address",
          "name": "from",
          "type": "address"
        },
        {
          "internalType": "address",
          "name": "to",
          "type": "address"
        },
        {
          "internalType": "uint256",
          "name": "tokenId",
          "type": "uint256"
        }
      ],
      "name": "safeTransferFrom",
      "outputs": [],
      "stateMutability": "nonpayable",
      "type": "function"
    },
    {
      "inputs": [
        {
          "internalType": "address",
          "name": "from",
          "type": "address"
        },
        {
          "internalType": "address",
          "name": "to",
          "type": "address"
        },
        {
          "internalType": "uint256",
          "name": "tokenId",
          "type": "uint256"
        },
        {
          "internalType": "bytes",
          "name": "data",
          "type": "bytes"
        }
      ],
      "name": "safeTransferFrom",
      "outputs": [],
      "stateMutability": "nonpayable",
      "type": "function"
    },
    {
      "inputs": [
        {
          "internalType": "address",
          "name": "operator",
          "type": "address"
        },
        {
          "internalType": "bool",
          "name": "approved",
          "type": "bool"
        }
      ],
      "name": "setApprovalForAll",
      "outputs": [],
      "stateMutability": "nonpayable",
      "type": "function"
    },
    {
      "inputs": [
        {
          "internalType": "uint256",
          "name": "",
          "type": "uint256"
        }
      ],
      "name": "stories",
      "outputs": [
        {
          "internalType": "uint256",
          "name": "storyId",
          "type": "uint256"
        },
        {
          "internalType": "address payable",
          "name": "writer",
          "type": "address"
        },
        {
          "internalType": "string",
          "name": "title",
          "type": "string"
        },
        {
          "internalType": "string",
          "name": "summary",
          "type": "string"
        },
        {
          "internalType": "string",
          "name": "ipfsHashImage",
          "type": "string"
        },
        {
          "internalType": "enum EtherianChronicle.StoryStatus",
          "name": "status",
          "type": "uint8"
        },
        {
          "internalType": "uint256",
          "name": "createdAt",
          "type": "uint256"
        },
        {
          "internalType": "uint256",
          "name": "proposalVoteEndTime",
          "type": "uint256"
        },
        {
          "internalType": "uint256",
          "name": "proposalYesVotes",
          "type": "uint256"
        },
        {
          "internalType": "uint256",
          "name": "proposalNoVotes",
          "type": "uint256"
        },
        {
          "internalType": "uint256",
          "name": "currentChapterIndex",
          "type": "uint256"
        }
      ],
      "stateMutability": "view",
      "type": "function"
    },
    {
      "inputs": [
        {
          "internalType": "uint256",
          "name": "",
          "type": "uint256"
        }
      ],
      "name": "storyCompletionBonusAvailable",
      "outputs": [
        {
          "internalType": "bool",
          "name": "",
          "type": "bool"
        }
      ],
      "stateMutability": "view",
      "type": "function"
    },
    {
      "inputs": [
        {
          "internalType": "uint256",
          "name": "",
          "type": "uint256"
        }
      ],
      "name": "storyIdToCurrentChapterIndex",
      "outputs": [
        {
          "internalType": "uint256",
          "name": "",
          "type": "uint256"
        }
      ],
      "stateMutability": "view",
      "type": "function"
    },
    {
      "inputs": [
        {
          "internalType": "bytes4",
          "name": "interfaceId",
          "type": "bytes4"
        }
      ],
      "name": "supportsInterface",
      "outputs": [
        {
          "internalType": "bool",
          "name": "",
          "type": "bool"
        }
      ],
      "stateMutability": "view",
      "type": "function"
    },
    {
      "inputs": [],
      "name": "symbol",
      "outputs": [
        {
          "internalType": "string",
          "name": "",
          "type": "string"
        }
      ],
      "stateMutability": "view",
      "type": "function"
    },
    {
      "inputs": [
        {
          "internalType": "uint256",
          "name": "tokenId",
          "type": "uint256"
        }
      ],
      "name": "tokenURI",
      "outputs": [
        {
          "internalType": "string",
          "name": "",
          "type": "string"
        }
      ],
      "stateMutability": "view",
      "type": "function"
    },
    {
      "inputs": [
        {
          "internalType": "address",
          "name": "from",
          "type": "address"
        },
        {
          "internalType": "address",
          "name": "to",
          "type": "address"
        },
        {
          "internalType": "uint256",
          "name": "tokenId",
          "type": "uint256"
        }
      ],
      "name": "transferFrom",
      "outputs": [],
      "stateMutability": "nonpayable",
      "type": "function"
    },
    {
      "inputs": [
        {
          "internalType": "address",
          "name": "newOwner",
          "type": "address"
        }
      ],
      "name": "transferOwnership",
      "outputs": [],
      "stateMutability": "nonpayable",
      "type": "function"
    },
    {
      "inputs": [
        {
          "internalType": "address",
          "name": "",
          "type": "address"
        },
        {
          "internalType": "uint256",
          "name": "",
          "type": "uint256"
        }
      ],
      "name": "userOwnedFragments",
      "outputs": [
        {
          "internalType": "uint256",
          "name": "",
          "type": "uint256"
        }
      ],
      "stateMutability": "view",
      "type": "function"
    },
    {
      "inputs": [
        {
          "internalType": "address",
          "name": "",
          "type": "address"
        }
      ],
      "name": "userProfiles",
      "outputs": [
        {
          "internalType": "uint256",
          "name": "totalPoints",
          "type": "uint256"
        },
        {
          "internalType": "uint256",
          "name": "storiesParticipated",
          "type": "uint256"
        },
        {
          "internalType": "uint256",
          "name": "winningVotes",
          "type": "uint256"
        },
        {
          "internalType": "address",
          "name": "referrer",
          "type": "address"
        },
        {
          "internalType": "uint256",
          "name": "referralCount",
          "type": "uint256"
        },
        {
          "internalType": "bool",
          "name": "isRegistered",
          "type": "bool"
        },
        {
          "internalType": "uint256",
          "name": "registeredAt",
          "type": "uint256"
        }
      ],
      "stateMutability": "view",
      "type": "function"
    },
    {
      "inputs": [
        {
          "internalType": "uint256",
          "name": "",
          "type": "uint256"
        },
        {
          "internalType": "uint256",
          "name": "",
          "type": "uint256"
        },
        {
          "internalType": "address",
          "name": "",
          "type": "address"
        }
      ],
      "name": "userVoteChoices",
      "outputs": [
        {
          "internalType": "uint256",
          "name": "",
          "type": "uint256"
        }
      ],
      "stateMutability": "view",
      "type": "function"
    },
    {
      "inputs": [
        {
          "internalType": "uint256",
          "name": "_storyId",
          "type": "uint256"
        },
        {
          "internalType": "uint256",
          "name": "_chapterIndex",
          "type": "uint256"
        },
        {
          "internalType": "uint256",
          "name": "_choiceIndex",
          "type": "uint256"
        }
      ],
      "name": "voteOnChapter",
      "outputs": [],
      "stateMutability": "nonpayable",
      "type": "function"
    },
    {
      "inputs": [
        {
          "internalType": "uint256",
          "name": "_storyId",
          "type": "uint256"
        },
        {
          "internalType": "enum EtherianChronicle.ProposalVoteType",
          "name": "_voteType",
          "type": "uint8"
        }
      ],
      "name": "voteOnProposal",
      "outputs": [],
      "stateMutability": "nonpayable",
      "type": "function"
    }
  ],
  "bytecode": "0x6080604052346103a857604080519081016001600160401b038111828210176102b5576040908152601482527f457468657269616e4c6f7265467261676d656e74000000000000000000000000602083015280519081016001600160401b038111828210176102b557604052600381526222a62360e91b602082015281516001600160401b0381116102b557600054600181811c9116801561039e575b602082101461029557601f811161033a575b50602092601f82116001146102d657928192936000926102cb575b50508160011b916000199060031b1c1916176000555b80516001600160401b0381116102b557600154600181811c911680156102ab575b602082101461029557601f8111610230575b50602091601f82116001146101cc579181926000926101c1575b50508160011b916000199060031b1c1916176001555b33156101ab5760078054336001600160a01b03198216811790925560405191906001600160a01b03167f8be0079c531659141344cd1fd0a4f28419497f9722a3daafe3b4186f6b6457e0600080a3600160085560006009556000600a55615fa090816103ae8239f35b631e4fbdf760e01b600052600060045260246000fd5b01519050388061012c565b601f198216926001600052806000209160005b858110610218575083600195106101ff575b505050811b01600155610142565b015160001960f88460031b161c191690553880806101f1565b919260206001819286850151815501940192016101df565b60016000527fb10e2d527612073b26eecdfd717e6a320cf44b4afac2b0732d9fcbe2b7fa0cf6601f830160051c8101916020841061028b575b601f0160051c01905b81811061027f5750610112565b60008155600101610272565b9091508190610269565b634e487b7160e01b600052602260045260246000fd5b90607f1690610100565b634e487b7160e01b600052604160045260246000fd5b0151905038806100c9565b601f1982169360008052806000209160005b8681106103225750836001959610610309575b505050811b016000556100df565b015160001960f88460031b161c191690553880806102fb565b919260206001819286850151815501940192016102e8565b600080527f290decd9548b62a8d60345a988386fc84ba6bc95484008f6362f93160ef3e563601f830160051c81019160208410610394575b601f0160051c01905b81811061038857506100ae565b6000815560010161037b565b9091508190610372565b90607f169061009c565b600080fdfe60c0604052600436101561001257600080fd5b60003560e01c806262804e146143e957806277e0f11461431157806301ffc9a71461428a57806304193a731461423257806306fdde031461418d578063081812fc1461414f578063095ea7b3146140605780630e3a5d741461400f57806315824bff14613fb557806315f07bd014613f9757806316b7044d14613f67578063179d1d9a14613db8578063210fa96b14613d995780632199d5cd14613c8457806321ba6ef614613bf457806323b872dd14613bdd5780632977753114613a4e578063332d56d7146139c557806333573fcb1461394d578063372782e9146139295780633aca98441461389f5780633b0b278014612d3a578063413f090814612cf257806342842e0e14612cc25780634729c72b14612c0757806348815a5714612be85780634afe441414612b9757806352265c9b14612b7b578063522c1d4714612b5e57806356dfde3d14612b315780635dc38c5614612ae45780635e6ee36f14612a8e578063600303d814612a0f5780636035545c146129f35780636352211e146129c357806363767a78146129395780636e7119041461220957806370a08231146121b3578063715018a6146121565780637325b9801461213a57806373af16fc14611f865780637c4f715c14611e2a5780637ca98fe714611db55780637cf9b8dd14611ce957806381fafa32146117fd5780638a3b6ab8146116d85780638cc05fdd146114945780638da5cb5b1461146b57806392b0fa4514610d0d57806395d89b411461139e578063987ee1561461129a578063a0bbd5561461127e578063a1e16b6314611225578063a22cb46514611184578063a290354e14611137578063a34dbc7214610fc7578063a65112c314610f79578063b04dc9b914610eef578063b32d90b314610de4578063b58c10c414610d7f578063b88d4fde14610d12578063b8b8ed6e14610d0d578063bc903cb814610c75578063bf36839914610c13578063c87b56dd14610b82578063cd032b2114610b28578063d4bd5a0d14610a26578063e1222a701461066a578063e985e9c51461060f578063efafb22e1461046d578063f2fde38b146103e3578063f7218eb4146103745763f895cf711461033d57600080fd5b3461036f57602036600319011261036f5760043560005261010e602052602060ff604060002054166040519015158152f35b600080fd5b3461036f57602036600319011261036f5760043560005261010960205260c060406000206103e1815491600181015490600281015460038201549060ff600560048501549401541693604051968752602087015260408601526060850152608084015260a0830190614509565bf35b3461036f57602036600319011261036f576103fc614516565b6104046152a3565b6001600160a01b0316801561045757600780546001600160a01b0319811683179091556001600160a01b03167f8be0079c531659141344cd1fd0a4f28419497f9722a3daafe3b4186f6b6457e0600080a3005b631e4fbdf760e01b600052600060045260246000fd5b3461036f57604036600319011261036f57602435600435600382101561036f5761049561524a565b600081815261010660205260409020600101546001600160a01b0316156105fe5780600052610106602052604060002060ff60068201541660058110156105c6576105ed5760088101544210156105dc5733600090815260098201602081905260409091205460ff1660038110156105c6576105b55760009084156105a65733825260205260409020805460ff191660ff8516179055600060001984016105815750600a016105448154614a61565b90555b7f5742bf7a0a9669547e2c74d5fd58cdcd344fc543d9b0f413c02d158e82c352d360405180610577339582614633565b0390a36001600855005b5060028314610591575b50610547565b600b0161059e8154614a61565b90558261058b565b639c45400160e01b8252600482fd5b633dc416fb60e01b60005260046000fd5b634e487b7160e01b600052602160045260246000fd5b637f6cb88d60e01b60005260046000fd5b63cb99ec6360e01b60005260046000fd5b637dc66bf560e11b60005260046000fd5b3461036f57604036600319011261036f57610628614516565b61063061452c565b9060018060a01b0316600052600560205260406000209060018060a01b0316600052602052602060ff604060002054166040519015158152f35b3461036f5760a036600319011261036f576044356024356004356064356001600160401b03811161036f576106a39036906004016145cc565b6084356001600160401b03811161036f576106c290369060040161465c565b906106cb61524a565b600085815261010660209081526040808320338452600e0190915290205460ff161580610a01575b6109f057600085815261010660205260409020600101546001600160a01b0316156105fe578460005261010660205260406000209660ff60068901541660058110156105c6576001036109df57600d8801805497888110156109bd576107599082614927565b5060ff600782015416156109ce57826006820154036109bd5760018911806109a0575b61098f57851561097e5760026107996107a19460038c940161510f565b500155615bd0565b5090868255856001830155600282016001600160401b038511610968576107d2856107cc835461468c565b836154e6565b600085601f81116001146109055780610801926000916108fa575b508160011b916000199060031b1c19161790565b90555b42600483015561012c4201928342116108e45760058301849055600019600684015560078301805460ff191690556000600984018190559192600301915b81811061089d575050505084600c7f0baadfbae2e1da6baee5ce83cd86a13431a3891f835b953b86990f5d27828482959697015561088d604051938493604085526040850191615071565b9060208301520390a36001600855005b806108de6108c76108b16001948689615bf1565b9190604051926108c084614764565b36916148ce565b815260006020820152600019604082015285615c32565b01610842565b634e487b7160e01b600052601160045260246000fd5b90508801358c6107ed565b50818152602081209086601f198116825b81811061094d575010610933575b5050600185811b019055610804565b870135600019600388901b60f8161c191690558980610924565b8a84013585556001909401936020938401938a935001610916565b634e487b7160e01b600052604160045260246000fd5b63b4fa3fb360e01b60005260046000fd5b6310b5480560e21b60005260046000fd5b5060ff60076109b3600c8d015485614927565b500154161561077c565b631f8c06ff60e11b60005260046000fd5b630ef613a360e31b60005260046000fd5b630143fc9d60e21b60005260046000fd5b63712f99f760e01b60005260046000fd5b50600085815261010660205260409020600101546001600160a01b03163314156106f3565b3461036f57604036600319011261036f57600435610a4261452c565b600082815261010660205260409020600101546001600160a01b03163303610b1757600082815261010660205260409020600101546001600160a01b0316156105fe57816000526101066020526040600020600e81019060018060a01b0383166000528160205260ff6040600020541615610ab957005b60058391610ae69360018060a01b0384166000526020526040600020600160ff1982541617905501615209565b6001600160a01b0316907f4486767bf1b4c9809ec2021de5f1555d0a96d0cc9d7c3008bfafd13f3c69ca8c600080a3005b6379c000df60e11b60005260046000fd5b3461036f57602036600319011261036f57600435600081815261010660205260409020600101546001600160a01b0316156105fe57600052610106602052604080600020600b600a82015491015482519182526020820152f35b3461036f57602036600319011261036f576004356000818152600260205260409020546001600160a01b031615610bd757610bbf610bd391614ade565b60405191829160208352602083019061458f565b0390f35b60405162461bcd60e51b8152602060048201526014602482015273151bdad95b88191bd95cc81b9bdd08195e1a5cdd60621b6044820152606490fd5b3461036f57602036600319011261036f57600435603281101561036f57600560a09102600180831b0381600b01541690600c81015490600d810154600f600e830154920154926040519485526020850152604084015260608301526080820152f35b3461036f57602036600319011261036f57600435600081815261010660205260409020600101546001600160a01b0316156105fe5760005261010660205260406000206008810154600a820154600b8301548242109182610cee575b608094506040519384526020840152604083015215156060820152f35b915092600660ff910154169260058410156105c6576080931591610cd1565b6147e3565b3461036f57608036600319011261036f57610d2b614516565b610d3361452c565b90604435606435926001600160401b03841161036f573660238501121561036f57610d6b610d7d9436906024816004013591016148ce565b92610d77838383614e51565b33615d54565b005b3461036f57602036600319011261036f57600435600081815261010660205260409020600101546001600160a01b0316156105fe57600052610106602052610bd3610dd0600560406000200161512b565b604051918291602083526020830190614800565b3461036f57610df236614646565b600082815261010660205260409020600101546001600160a01b0316156105fe5781600052610106602052600d60406000200154811015610ede57610e4791600052610106602052600d604060002001614927565b50805460048201546005830154600684015460ff60078601541690600986015492610ebe610e92600360405199610e8c8b610e8581600285016146c6565b038c6147b5565b01615181565b610eb0604051998a998a5261010060208b01526101008a019061458f565b9088820360408a015261483d565b946060870152608086015260a0850152151560c084015260e08301520390f35b6319786f5560e31b60005260046000fd5b3461036f57610efd36614646565b600082815261010660205260409020600101549091906001600160a01b0316156105fe5780600052610106602052600d60406000200154821015610ede576003610f5e610bd393610f6593600052610106602052600d604060002001614927565b5001615181565b60405191829160208352602083019061483d565b3461036f57604036600319011261036f57610f9261452c565b60043560005261010f60205260406000209060018060a01b0316600052602052602060ff604060002054166040519015158152f35b3461036f57602036600319011261036f57600435600081815261010660205260409020600101546001600160a01b0316156105fe5760005261010660205260406000208054600160a01b6001900360018301541691600681015460ff169060078101546008820154600a830154600b84015491600c85015493600d86015495604051908180600283019061105a916146c6565b0361106590836147b5565b6040518061107681600385016146c6565b0361108190826147b5565b604051918261109381600484016146c6565b0361109e90846147b5565b6005016110aa9061512b565b926040519c8d9c8d5260208d015260408c016101a090526101a08c016110cf9161458f565b8b810360608d01526110e09161458f565b8a810360808c01526110f19161458f565b89810360a08b015261110291614800565b9660c08901611110916147d6565b60e08801526101008701526101208601526101408501526101608401526101808301520390f35b3461036f5761114536614542565b9160005261010b60205260406000209060005260205260406000209060018060a01b0316600052602052602060ff604060002054166040519015158152f35b3461036f57604036600319011261036f5761119d614516565b6024359081151580920361036f576001600160a01b031690811561121057336000526005602052604060002082600052602052604060002060ff1981541660ff83161790556040519081527f17307eab39ab6107e8899845ad3d59bd9653f200f220920489ca2b5937696c3160203392a3005b50630b61174360e31b60005260045260246000fd5b3461036f57602036600319011261036f57600435600081815261010660205260409020600101546001600160a01b0316156105fe57600052610106602052602060ff600660406000200154166103e160405180926147d6565b3461036f57600036600319011261036f57602060405160148152f35b3461036f57602036600319011261036f576112b3614516565b600060c06040516112c38161479a565b8281528260208201528260408201528260608201528260808201528260a0820152015260018060a01b031660005261010860205260e0604060002060405161130a8161479a565b81549182825260018101546020830190815260028201546040840190815260018060a01b0360038401541690606085019182526004840154926080860193845260c0600660ff6005880154169660a0890197151588520154960195865260405196875251602087015251604086015260018060a01b03905116606085015251608084015251151560a08301525160c0820152f35b3461036f57600036600319011261036f5760405160006001546113c08161468c565b808452906001811690811561144757506001146113e8575b610bd383610bbf818503826147b5565b600160009081527fb10e2d527612073b26eecdfd717e6a320cf44b4afac2b0732d9fcbe2b7fa0cf6939250905b80821061142d57509091508101602001610bbf6113d8565b919260018160209254838588010152019101909291611415565b60ff191660208086019190915291151560051b84019091019150610bbf90506113d8565b3461036f57600036600319011261036f576007546040516001600160a01b039091168152602090f35b3461036f57606036600319011261036f576044356024356004356114b661524a565b600081815261010660205260409020600101546001600160a01b0316156105fe5780600052610106602052600d60406000200154821015610ede5780600052610106602052604060002061150d83600d8301614927565b509060ff60068201541660058110156105c6576001036105ed57600c015483036116c75760ff6007820154166116c75760058101544210156116b657600881019060018060a01b0333166000528160205260ff604060002054166116a5576003810190815486101561169457600481015461546081018091116108e4576115b087600994600193421115611657575b6115a68833615b47565b156116355761510f565b50016115bc8154614a61565b9055016115c98154614a61565b905533600081815260209283526040808220805460ff1916600117905584825261010d8452808220868352845280822083835284529081902086905551948552937ff6ed5a0362706e33942c258dd867d1664e91a7653843a7c3459a857db97287ae9190a46001600855005b33600052610108602052836040600020016116508154614a61565b905561510f565b8760005261010b6020526040600020896000526020526040600020848060a01b03331660005260205260406000208460ff1982541617905561159c565b639c45400160e01b60005260046000fd5b637c9a1cf960e01b60005260046000fd5b630931513d60e11b60005260046000fd5b63e0f0e3fb60e01b60005260046000fd5b3461036f57602036600319011261036f5760043560005261010660205260406000208054600160a01b60019003600183015416916040518080600284019061171f916146c6565b0361172a90826147b5565b604051918261173c81600384016146c6565b0361174790846147b5565b604051928361175981600485016146c6565b0361176490856147b5565b600682015460ff16936007830154600884015491600a85015493600b86015495600c0154966040519a8b9a8b5260208b015260408a0161016090526101608a016117ad9161458f565b89810360608b01526117be9161458f565b88810360808a01526117cf9161458f565b9560a088016117dd916147d6565b60c087015260e08601526101008501526101208401526101408301520390f35b3461036f57602036600319011261036f5760043561181961524a565b600081815261010660205260409020600101546001600160a01b0316156105fe578060005261010660205260ff6006604060002001541660058110156105c6576003036105ed578060005261010e60205260ff604060002054161561097e57600081815261010f6020908152604080832033845290915290205460ff166116a5576118a48133615b47565b15611cd9578060005261010f602052604060002060018060a01b0333166000526020526040600020600160ff1982541617905560409081516118e683826147b5565b601681527553746f727920636f6d706c6574696f6e20626f6e757360501b60208201523360005261010860205260ff60058460002001541615611cac575b3360005261010860205282600020805490606482018092116108e457557f4c3089477cda1ac100291a040b3ac97ff5f55b6d8b2acfb56a59b9419d95ce048351606481528460208201528061197d33948783019061458f565b0390a2336000908152610108602052828120805461010554600019935b818110611c7c575b5060028301549260046001820154910154908751946119c08661477f565b3386526020860185905288860152606085015260808401526000198414611ae45750506032821015611a65576119fc9060058302600b01615ec2565b80151580611ab0575b15611a7b576032811015611a655760058102600b0190611a24826150ca565b6000198201908282116108e4576032821015611a6557611a60936005611a5b9302600b0190611a5582600092615f18565b50615ec2565b615f0b565b6119fc565b634e487b7160e01b600052603260045260246000fd5b50905b51606481527ff4f665259eca3ac561a97b1f061b0f3f2e9716731a5bf5dab706284d34c5f63760203392a36001600855005b506032811015611a655760058102600c015460001982018281116108e4576032811015611a6557600502600c015410611a05565b60329192935010600014611bc7575061010554906032821015611a65576005611b109202600b01615ec2565b611b1c61010554614a61565b806101055560001981019081116108e4575b80151580611b93575b15611b8c576032811015611a655760058102600b0190611b56826150ca565b6000198201908282116108e4576032821015611a6557611b87936005611a5b9302600b0190611a5582600092615f18565b611b2e565b5090611a7e565b506032811015611a655760058102600c015460001982018281116108e4576032811015611a6557600502600c015410611b37565b6101015410611bd7575090611a7e565b611be090615e7d565b60315b80151580611c48575b15611c41576032811015611a655760058102600b0190611c0b826150ca565b6000198201908282116108e4576032821015611a6557611c3c936005611a5b9302600b0190611a5582600092615f18565b611be3565b5082611b8c565b506032811015611a655760058102600c015460001982018281116108e4576032811015611a6557600502600c015410611bec565b6032811015611a6557600b6005820201546001600160a01b03163314611ca45760010161199a565b9350866119a2565b336000908152610108602052838120600501805460ff191660011790558390204260069190910155611924565b6282b42960e81b60005260046000fd5b3461036f57611cf736614646565b600082815261010660205260409020600101549091906001600160a01b0316156105fe5780600052610106602052600d60406000200154821015610ede576000526101066020526040600020611d5082600d8301614927565b5060ff6006830154169260058410156105c6576001602094149283611da7575b505081611d97575b81611d89575b506040519015158152f35b600591500154421082611d7e565b600781015460ff16159150611d78565b600c01541491508380611d70565b3461036f57604036600319011261036f57600435611dd161452c565b600082815261010660205260409020600101549091906001600160a01b0316156105fe57600052610106602052600e6040600020019060018060a01b0316600052602052602060ff604060002054166040519015158152f35b3461036f57611e3836614646565b90611e4161524a565b600081815261010660205260409020600101546001600160a01b0316156105fe5780600052610106602052600d60406000200154821015610ede5780600052610106602052604060002060ff6006611e9c85600d8501614927565b509201541660058110156105c6576001036105ed57600781019081549160ff83166116c75760058201544210611f755760009283928460038201948554915b828110611f3f576006840188905560ff198516600117865589897f48be0badec74b6f8e2858cd3239fe3cf856aaafd5cb4f67a0a5bcca04e2831298a611f21818c61510f565b509061057760405192839283526040602084015260408301906146c6565b816001611f4c838a61510f565b50015411611f5d575b600101611edb565b9650506001611f6c878761510f565b50015486611f55565b6304add5b960e31b60005260046000fd5b3461036f57611f9436614646565b6101055490818310156120f557611fab9083614905565b908082116120ed575b50611fbf8282615092565b91611fc98361509f565b92611fd760405194856147b5565b808452611fe6601f199161509f565b0160005b8181106120b3575050805b828110612073578360405180916020820160208352815180915260206040840192019060005b818110612029575050500390f35b91935091602060a0600192608087518580851b038151168352848101518584015260408101516040840152606081015160608401520151608082015201940191019184939261201b565b6032811015611a6557806120ac61208c84600194615092565b61209b60058402600b016150ca565b6120a582896150b6565b52866150b6565b5001611ff5565b6020906040516120c28161477f565b6000815260008382015260006040820152600060608201526000608082015282828801015201611fea565b905082611fb4565b60405162461bcd60e51b815260206004820152601960248201527f537461727420696e646578206f7574206f6620626f756e6473000000000000006044820152606490fd5b3461036f57600036600319011261036f57602060405160328152f35b3461036f57600036600319011261036f5761216f6152a3565b600780546001600160a01b031981169091556000906001600160a01b03167f8be0079c531659141344cd1fd0a4f28419497f9722a3daafe3b4186f6b6457e08280a3005b3461036f57602036600319011261036f576001600160a01b036121d4614516565b1680156121f35760005260036020526020604060002054604051908152f35b6322718ad960e21b600052600060045260246000fd5b3461036f5760c036600319011261036f576004356001600160401b03811161036f576122399036906004016145cc565b9060a0526024356001600160401b03811161036f5761225c9036906004016145cc565b90916044356001600160401b03811161036f5761227d9036906004016145cc565b90608052926064356001600160401b03811161036f576122a19036906004016145cc565b6084949194356001600160401b03811161036f576122c390369060040161465c565b60a4356001600160401b03811161036f576122e290369060040161465c565b97906122ec61524a565b87156128fc5785156128b757891561287257841561281e57600954986123118a614a61565b60095560008a8152610106602052604090208a81556001810180546001600160a01b03191633179055600281016001600160401b038b116109685761235a8b6107cc835461468c565b60008b601f81116001146127b65780612388926000916127a957508160011b916000199060031b1c19161790565b90555b600381016001600160401b038911610968576123ab896107cc835461468c565b600089601f811160011461274457806123d99260009161273957508160011b916000199060031b1c19161790565b90555b6001600160401b038c11610968576124048c6123fb600484015461468c565b600484016154e6565b60008c601f81116001146126c85780612432926000916126bb57508160011b916000199060031b1c19161790565b60048201555b6006810160ff19815416905542600782015561012c42018042116108e45781600c916008600094969596015582600a82015582600b8201550155896000526101066020526040600020906000926005600e84019301935b81811061266b5750503360008181526020939093526040909220805460ff19166001179055506124be91615209565b876000526101066020526124d8600d604060002001615bd0565b50936000855588600186015560028501916001600160401b0382116109685761250b82612505855461468c565b856154e6565b600090601f83116001146126045761253c9291600091836125f9575b50508160011b916000199060031b1c19161790565b90559190915b4260048301556000600583015560001960068301556007820160ff19815416905560006009830155600360009201915b8181106125df5788887fd7fe016101e1b4d6cdd2d7b66e1b1ca2a866958b9af7d6d66635d8bd13ab06936125bf8a6105776125cd8c8c60405195869560608752606087019060a051615071565b918583036020870152615071565b82810360408401523396608051615071565b806125f36108c76108b16001948689615bf1565b01612572565b013590508c80612527565b8382526020822091601f198416815b8181106126535750908460019594939210612639575b505050811b019055919091612542565b0135600019600384901b60f8161c191690558b8080612629565b91936020600181928787013581550195019201612613565b80604061268361267e6001948688615bac565b615bbc565b600090848060a01b0316815286602052208260ff198254161790556126b56126af61267e838688615bac565b87615209565b0161248f565b905060805101358f6107ed565b506004820181526020812090808e5b601f198116821061271d57601f198116109050612701575b505060018c811b016004820155612438565b608051013560001960038f901b60f8161c191690558c806126ef565b90919260206001819286608051013581550194019201906126d7565b90508c0135386107ed565b5081815260208120908a601f198116828e5b82821061278e57505010612774575b5050600189811b0190556123dc565b8b013560001960038c901b60f8161c191690558d80612765565b84013585556001909401936020938401938e9350018e612756565b905060a0510135386107ed565b508181526020812090805b601f198e16811061280457508c601f198116106127e8575b505060018b811b01905561238b565b60a051013560001960038e901b60f8161c191690558d806127d9565b90916020600181928560a0510135815501930191016127c1565b60405162461bcd60e51b815260206004820152602660248201527f43686170746572203120636f6e74656e7420686173682063616e6e6f7420626560448201526520656d70747960d01b6064820152608490fd5b60405162461bcd60e51b815260206004820152601a60248201527f496d61676520686173682063616e6e6f7420626520656d7074790000000000006044820152606490fd5b60405162461bcd60e51b815260206004820152601760248201527f53756d6d6172792063616e6e6f7420626520656d7074790000000000000000006044820152606490fd5b60405162461bcd60e51b81526020600482015260156024820152745469746c652063616e6e6f7420626520656d70747960581b6044820152606490fd5b3461036f57602036600319011261036f57600435600081815261010660205260409020600101546001600160a01b03163303610b1757600081815261010660205260409020600101546001600160a01b0316156105fe57600052610106602052600660406000200160ff81541660058110156105c6576001036105ed57805460ff19166004179055005b3461036f57602036600319011261036f5760206129e160043561526c565b6040516001600160a01b039091168152f35b3461036f57600036600319011261036f57602060405160648152f35b3461036f57604036600319011261036f57600435612a2b61452c565b600082815261010660205260409020600101549091906001600160a01b0316156105fe5760005261010660205260096040600020019060018060a01b031660005260205260ff6040600020541660038110156105c6576020906040519015158152f35b3461036f57604036600319011261036f57600435612aaa61452c565b600082815261010660205260409020600101549091906001600160a01b0316156105fe57602091612ada91614ff8565b6040519015158152f35b3461036f57612af236614542565b9160005261010c60205260406000209060005260205260406000209060018060a01b0316600052602052602060ff604060002054166040519015158152f35b3461036f57602036600319011261036f576004356000526101076020526020604060002054604051908152f35b3461036f57600036600319011261036f5760206040516154608152f35b3461036f57600036600319011261036f57602060405160198152f35b3461036f57602036600319011261036f57600435600081815261010660205260409020600101546001600160a01b0316156105fe576000526101066020526020600c60406000200154604051908152f35b3461036f57600036600319011261036f57602061010554604051908152f35b3461036f57602036600319011261036f576001600160a01b03612c28614516565b1660005261010a60205260406000206040518060208354918281520190819360005260206000209060005b818110612cac5750505081612c699103826147b5565b6040519182916020830190602084525180915260408301919060005b818110612c93575050500390f35b8251845285945060209384019390920191600101612c85565b8254845260209093019260019283019201612c53565b3461036f57610d7d612cd3366145f9565b9060405192612ce36020856147b5565b60008452610d77838383614e51565b3461036f57612d0036614542565b9160005261010d60205260406000209060005260205260406000209060018060a01b03166000526020526020604060002054604051908152f35b3461036f57612d4836614646565b612d5061524a565b600082815261010660205260409020600101546001600160a01b0316156105fe5781600052610106602052600d60406000200154811015610ede5781600052610106602052612da681600d604060002001614927565b5060ff6007820154161561385a5733600090815260088201602052604090205460ff1615613822578260005261010d602052604060002082600052602052604060002060018060a01b033316600052602052600660406000205491015481036137d257600083815261010c60209081526040808320858452825280832033845290915290205460ff1661379b57600083815261010b6020908152604080832085845282528083203384529091529020546032929060ff16613792575b33600090815261010860205260409020600301546001600160a01b031680151580613778575b6133be575b509091926040937f4c3089477cda1ac100291a040b3ac97ff5f55b6d8b2acfb56a59b9419d95ce04855191612ec287846147b5565b600c83526b57696e6e696e6720766f746560a01b60208401523360005261010860205260ff60058860002001541615613391575b3360005261010860205286600020612f0f828254614905565b9055865190815286602082015280612f2b33948983019061458f565b0390a2336000908152610108602052848120805461010554600019935b818110613361575b506002830154926004600182015491015490895194612f6e8661477f565b338652602086018590528a8601526060850152608084015260001984146131c55750506032821015611a6557612faa9060058302600b01615ec2565b80151580613191575b15613008576032811015611a655760058102600b0190612fd2826150ca565b6000198201908282116108e4576032821015611a6557613003936005611a5b9302600b0190611a5582600092615f18565b612faa565b509091925b33600052610108602052600281600020016130288154614a61565b9055600082815261010c602090815282822085835281528282203383529052819020805460ff19166001179055600a549061306282614a61565b600a5561306f82336152cc565b33600052610108602052600581600020549561308a33614a16565b9683519161309783614749565b86835260208301908882528584019081526060840191428352608085019384526130c560a086019b8c614943565b8760005261010960205286600020945185555160018501555160028401555160038301555160048201550194519460048610156105c65760009560ff8019835416911617905533855261010a602052808520805490600160401b82101561317d5790613136916001820181556145b4565b81549060031b9084821b91600019901b1916179055519081527f81e813c8b3a484afcb67e867ba5c1eac20e940fc34f1823c4fd66677bc0505a760203392a4600160085580f35b634e487b7160e01b87526041600452602487fd5b506032811015611a655760058102600c015460001982018281116108e4576032811015611a6557600502600c015410612fb3565b603291929350106000146132aa575061010554906032821015611a655760056131f19202600b01615ec2565b6131fd61010554614a61565b806101055560001981019081116108e4575b80151580613276575b1561326d576032811015611a655760058102600b0190613237826150ca565b6000198201908282116108e4576032821015611a6557613268936005611a5b9302600b0190611a5582600092615f18565b61320f565b5090919261300d565b506032811015611a655760058102600c015460001982018281116108e4576032811015611a6557600502600c015410613218565b61010154106132bc575090919261300d565b6132c590615e7d565b60315b8015158061332d575b15613326576032811015611a655760058102600b01906132f0826150ca565b6000198201908282116108e4576032821015611a6557613321936005611a5b9302600b0190611a5582600092615f18565b6132c8565b508461326d565b506032811015611a655760058102600c015460001982018281116108e4576032811015611a6557600502600c0154106132d1565b6032811015611a6557600b6005820201546001600160a01b0316331461338957600101612f48565b935088612f50565b336000908152610108602052878120600501805460ff191660011790558790204260069190910155612ef6565b60409081516133cd83826147b5565b600e81526d526566657272616c20626f6e757360901b60208201528160005261010860205260ff6005846000200154161561374c575b8160005261010860205282600020805490601482018092116108e45783927f4c3089477cda1ac100291a040b3ac97ff5f55b6d8b2acfb56a59b9419d95ce049261346092558551918291601483528760208401528783019061458f565b0390a260008181526101086020528281208054610105546000199591939092905b83811061371c575b50600281015460046001830154920154928051966134a68861477f565b8752602087018690528601526060850152608084015260001984146135805750506032821015611a65576134e09060058302600b01615ec2565b8015158061354c575b1561353e576032811015611a655760058102600b0190613508826150ca565b6000198201908282116108e4576032821015611a6557613539936005611a5b9302600b0190611a5582600092615f18565b6134e0565b509091925b92919084612e8d565b506032811015611a655760058102600c015460001982018281116108e4576032811015611a6557600502600c0154106134e9565b60329192935010600014613665575061010554906032821015611a655760056135ac9202600b01615ec2565b6135b861010554614a61565b806101055560001981019081116108e4575b80151580613631575b15613628576032811015611a655760058102600b01906135f2826150ca565b6000198201908282116108e4576032821015611a6557613623936005611a5b9302600b0190611a5582600092615f18565b6135ca565b50909192613543565b506032811015611a655760058102600c015460001982018281116108e4576032811015611a6557600502600c0154106135d3565b61010154106136775750909192613543565b61368090615e7d565b60315b801515806136e8575b156136e1576032811015611a655760058102600b01906136ab826150ca565b6000198201908282116108e4576032821015611a65576136dc936005611a5b9302600b0190611a5582600092615f18565b613683565b5084613628565b506032811015611a655760058102600c015460001982018281116108e4576032811015611a6557600502600c01541061368c565b6032811015611a6557600b6005820201546001600160a01b0316861461374457600101613481565b95508a613489565b6000828152610108602052838120600501805460ff191660011790558390204260069190910155613403565b503360005261010860205260026040600020015415612e88565b604b9250612e62565b60405162461bcd60e51b815260206004820152600f60248201526e105b1c9958591e4818db185a5b5959608a1b6044820152606490fd5b60405162461bcd60e51b815260206004820152602260248201527f596f75206469646e277420766f746520666f722077696e6e696e672063686f69604482015261636560f01b6064820152608490fd5b60405162461bcd60e51b815260206004820152601060248201526f596f7520646964206e6f7420766f746560801b6044820152606490fd5b60405162461bcd60e51b815260206004820152601860248201527f43686170746572206e6f74207265736f6c7665642079657400000000000000006044820152606490fd5b3461036f57602036600319011261036f57600435600081815261010660205260409020600101546001600160a01b03163303610b1757600081815261010660205260409020600101546001600160a01b0316156105fe57600052610106602052600660406000200160ff81541660058110156105c6576004036105ed57805460ff19166001179055005b3461036f57600036600319011261036f576040805161012c815261012c6020820152f35b3461036f57604036600319011261036f5760043561396961452c565b600082815261010660205260409020600101549091906001600160a01b0316156105fe5760005261010660205260096040600020019060018060a01b0316600052602052610bd360ff6040600020541660405191829182614633565b3461036f57602036600319011261036f576001600160a01b036139e6614516565b1660005261010860205260e06040600020805490600181015490600281015460018060a01b03600383015416600483015491600660ff600586015416940154946040519687526020870152604086015260608501526080840152151560a083015260c0820152f35b3461036f57602036600319011261036f57600435600081815261010660209081526040808320338452600e0190915290205460ff161580613bb8575b6109f057600081815261010660205260409020600101546001600160a01b0316156105fe578060005261010660205260406000206006810160ff81541660058110156105c6576001036105ed57600d82019182541561097e57600c613af191015483614927565b5060ff600782015416159081613baa575b506116c757600360ff198254161790558160005261010e6020526040600020600160ff1982541617905554816000526101066020526040600020600090600d600091018054905b818310613b8357857ff230d459bd0839b8919fdbc1dc46488c4709fb3d295344750b93c09bd26cf6f26040878782519182526020820152a2005b909192613ba16001916009613b988786614927565b50015490614905565b93019190613b49565b600591500154421084613b02565b50600081815261010660205260409020600101546001600160a01b0316331415613a8a565b3461036f57610d7d613bee366145f9565b91614e51565b3461036f57613c0236614542565b60008381526101066020526040902060010154919290916001600160a01b0316156105fe5780600052610106602052600d60406000200154831015610ede57600892613c5e91600052610106602052600d604060002001614927565b509060018060a01b031660005201602052602060ff604060002054166040519015158152f35b3461036f57602036600319011261036f57613c9d614516565b3360005261010860205260ff60056040600020015416613d88576001600160a01b0316338114613d775733600052610108602052604060002060058101600160ff1982541617905542600682015581151580613d5b575b613d22575b50337f2138b9314634f9fdd5e49bee3eaf17ca557b6637524d0db759711c3bfcd3d850600080a3005b600301816001600160601b0360a01b825416179055806000526101086020526004604060002001613d538154614a61565b905581613cf9565b508160005261010860205260ff60056040600020015416613cf4565b63dc33424560e01b60005260046000fd5b634f2532fb60e11b60005260046000fd5b3461036f57602036600319011261036f57610bd3610bbf600435614ade565b3461036f57608036600319011261036f57613dd1614516565b6064356001600160401b03811161036f57613df3613e1f9136906004016145cc565b9190613dfd6152a3565b613e0561524a565b600a5492613e1284614a61565b600a556108c084866152cc565b91816000526006602052604060002083516001600160401b03811161096857613e5281613e4c845461468c565b846154e6565b602094601f8211600114613f0257613e85929394958291600092613ef75750508160011b916000199060031b1c19161790565b90555b7ff8e1a15aba9398e019f0b49df1a4fde98ee17ae345cb5f6b5e2c27f5033e8ce76020604051848152a160405191825260443591602435916001600160a01b0316907f81e813c8b3a484afcb67e867ba5c1eac20e940fc34f1823c4fd66677bc0505a790602090a46001600855005b015190508680612527565b601f1982169583600052806000209160005b888110613f4f57508360019596979810613f36575b505050811b019055613e88565b015160001960f88460031b161c19169055858080613f29565b91926020600181928685015181550194019201613f14565b3461036f57602036600319011261036f576020613f8a613f85614516565b614a16565b6103e16040518092614509565b3461036f57600036600319011261036f576020600954604051908152f35b3461036f57604036600319011261036f57613fce614516565b6001600160a01b0316600090815261010a602052604090208054602435919082101561036f57602091614000916145b4565b90549060031b1c604051908152f35b3461036f57602036600319011261036f57600435600081815261010660205260409020600101546001600160a01b0316156105fe576000526101066020526020600d60406000200154604051908152f35b3461036f57604036600319011261036f57614079614516565b6024356140858161526c565b3315158061413c575b8061410e575b6140f95781906001600160a01b0384811691167f8c5be1e5ebec7d5bd14f71427d1e84f3dd0314c0f7b2291e5b200ac8c7c3b925600080a4600090815260046020526040902080546001600160a01b0319166001600160a01b03909216919091179055005b63a9fbf51f60e01b6000523360045260246000fd5b506001600160a01b038116600090815260056020908152604080832033845290915290205460ff1615614094565b506001600160a01b03811633141561408e565b3461036f57602036600319011261036f5760043561416c8161526c565b506000526004602052602060018060a01b0360406000205416604051908152f35b3461036f57600036600319011261036f57604051600080546141ae8161468c565b808452906001811690811561144757506001146141d557610bd383610bbf818503826147b5565b60008080527f290decd9548b62a8d60345a988386fc84ba6bc95484008f6362f93160ef3e563939250905b80821061421857509091508101602001610bbf6113d8565b919260018160209254838588010152019101909291614200565b3461036f5761424036614542565b600083815261010660205260409020600101549192916001600160a01b0316156105fe5781600052610106602052600d60406000200154831015610ede57602092612ada9261494f565b3461036f57602036600319011261036f5760043563ffffffff60e01b811680910361036f57602090632483248360e11b81149081156142ce57506040519015158152f35b6380ac58cd60e01b811491508115614300575b81156142ef575b5082611d7e565b6301ffc9a760e01b149050826142e8565b635b5e139f60e01b811491506142e1565b3461036f57602036600319011261036f57600060a060405161433281614749565b828152826020820152826040820152826060820152826080820152015260043560005261010960205260c060406000206103e16040519161437283614749565b80548352600181015490602084019182526002810154604085019081526003820154906060860191825260ff600560048501549460808901958652015416936143bf60a088019586614943565b604051965187525160208701525160408601525160608501525160808401525160a0830190614509565b3461036f57602036600319011261036f5760043561440561524a565b600081815261010660205260409020600101546001600160a01b0316156105fe578060005261010660205260406000206006810160ff81541660058110156105c6576105ed57600882015442106105dc57600a820154600b83015410156144d357600160ff1982541617905561012c4201908142116108e457600791600d61449c920190600561449483614912565b500155614912565b5001805460ff191690557f6d23a3225580b0851279ce9208e1301e9e30f00118107393085dd5989c708284600080a25b6001600855005b805460ff19166002179055507f140b86da62f01bb56a1945d99ff048eb55be9874ca4805296bf0fe36c905e40e600080a26144cc565b9060048210156105c65752565b600435906001600160a01b038216820361036f57565b602435906001600160a01b038216820361036f57565b606090600319011261036f5760043590602435906044356001600160a01b038116810361036f5790565b60005b83811061457f5750506000910152565b818101518382015260200161456f565b906020916145a88151809281855285808601910161456c565b601f01601f1916010190565b8054821015611a655760005260206000200190600090565b9181601f8401121561036f578235916001600160401b03831161036f576020838186019501011161036f57565b606090600319011261036f576004356001600160a01b038116810361036f57906024356001600160a01b038116810361036f579060443590565b9190602083019260038210156105c65752565b604090600319011261036f576004359060243590565b9181601f8401121561036f578235916001600160401b03831161036f576020808501948460051b01011161036f57565b90600182811c921680156146bc575b60208310146146a657565b634e487b7160e01b600052602260045260246000fd5b91607f169161469b565b600092918154916146d68361468c565b808352926001811690811561472c57506001146146f257505050565b60009081526020812093945091925b838310614712575060209250010190565b600181602092949394548385870101520191019190614701565b915050602093945060ff929192191683830152151560051b010190565b60c081019081106001600160401b0382111761096857604052565b606081019081106001600160401b0382111761096857604052565b60a081019081106001600160401b0382111761096857604052565b60e081019081106001600160401b0382111761096857604052565b90601f801991011681019081106001600160401b0382111761096857604052565b9060058210156105c65752565b3461036f57600036600319011261036f57602060405161012c8152f35b906020808351928381520192019060005b81811061481e5750505090565b82516001600160a01b0316845260209384019390920191600101614811565b9080602083519182815201916020808360051b8301019401926000915b83831061486957505050505090565b9091929394602080600192601f19858203018652885190604080614896845160608552606085019061458f565b93858101518685015201519101529701930193019193929061485a565b6001600160401b03811161096857601f01601f191660200190565b9291926148da826148b3565b916148e860405193846147b5565b82948184528183011161036f578281602093846000960137010152565b919082018092116108e457565b805415611a6557600052602060002090600090565b8054821015611a6557600052600a602060002091020190600090565b60048210156105c65752565b91908260005261010660205261496c81600d604060002001614927565b509260ff60078501541615614a0d576001600160a01b038316600090815260088501602052604090205460ff1615614a0d578060005261010c602052604060002082600052602052604060002060018060a01b03841660005260205260ff60406000205416614a0d5760005261010d60205260406000209060005260205260406000209060018060a01b031660005260205260066040600020549101541490565b50505050600090565b6001600160a01b0316600090815261010860205260409020546103e8811015614a5b576101f4811015614a555760641115614a5057600090565b600190565b50600290565b50600390565b60001981146108e45760010190565b60009291815491614a808361468c565b9260018116908115614acb5750600114614a9957505050565b909192935060005260206000206000905b838210614ab75750500190565b600181602092548486015201910190614aaa565b60ff191683525050811515909102019150565b6000526101096020526040600020604051614af881614749565b8154815260018201549060208101918252600283015460408201526003830154606082015260ff60056004850154946080840195865201541690614b4060a082019283614943565b516000526101066020526040600020905160048110156105c657614b6390615538565b600282018351614b72906155f4565b9351614b7d906155f4565b9451614b88906155f4565b604051683d913730b6b2911d1160b91b6020820152958695919391614bb06029880185614a70565b6a010169021b430b83a32b9160ad1b815281519182600b83019160200191614bd79261456c565b0192600b84017f222c226465736372697074696f6e223a224c6f726520467261676d656e7420669052602b84017f726f6d20636f6c6c61626f7261746976652073746f7279202d20000000000000905282516020840194816045820190614c3e918861456c565b01600b0168081c985c9a5d1e488b60ba1b603a8201526d2261747472696275746573223a5b60901b6043820152605181017f7b2274726169745f74797065223a2253746f7279222c2276616c7565223a22009052607001614c9e91614a70565b62089f4b60ea1b81527f7b2274726169745f74797065223a2243686170746572222c2276616c7565223a6003820152601160f91b6023820152815191614ced908390602484019060200161456c565b019062089f4b60ea1b6024830152602782017f7b2274726169745f74797065223a22526172697479222c2276616c7565223a22905251918260478301614d329261456c565b0160240162089f4b60ea1b6023820152602681017f7b2274726169745f74797065223a22506f696e7473206174204d696e74222c229052673b30b63ab2911d1160c11b604682015281519182604e83019160200191614d909261456c565b61227d60f01b604e929091019182015261174b60f21b6050820152681134b6b0b3b2911d1160b91b6052820152614dcf91605b90910190600401614a70565b61227d60f01b815203601d1981018252600201614dec90826147b5565b614df5906156b8565b6040518091602082017f646174613a6170706c69636174696f6e2f6a736f6e3b6261736536342c000000905280519081603d84019160200191614e379261456c565b810103603d01601f1981018252614e4e90826147b5565b90565b6001600160a01b0390911691908215614fe2576000828152600260205260408120546001600160a01b0316938391859033151580614f4a575b507fddf252ad1be2c89b69c2b068fc378daa952ba7f163c4a11628f55a4df523b3ef9082614f15575b83815260036020526040812060018154019055848152600260205260408120846001600160601b0360a01b82541617905580a46001600160a01b0316808303614efb57505050565b6364283d7b60e01b60005260045260245260445260646000fd5b600085815260046020526040902080546001600160a01b03191690558281526003602052604081208054600019019055614eb3565b915091925080614f93575b15614f64579084849238614e8a565b839085614f7d57602491637e27328960e01b8252600452fd5b60449163177e802f60e01b825233600452602452fd5b503385148015614fc1575b80614f555750838152600460205260408120546001600160a01b03163314614f55565b5084815260056020908152604080832033845290915281205460ff16614f9e565b633250574960e11b600052600060045260246000fd5b8060005261010660205260ff6006604060002001541660058110156105c65760030361506a578060005261010e60205260ff604060002054161561506a578060005261010f602052604060002060018060a01b03831660005260205260ff6040600020541661506a57614e4e91615b47565b5050600090565b908060209392818452848401376000828201840152601f01601f1916010190565b919082039182116108e457565b6001600160401b0381116109685760051b60200190565b8051821015611a655760209160051b010190565b906040516150d78161477f565b82546001600160a01b031681526001830154602082015260028301546040820152600383015460608201526004909201546080830152565b8054821015611a65576000526003602060002091020190600090565b906040519182815491828252602082019060005260206000209260005b81811061515f57505061515d925003836147b5565b565b84546001600160a01b0316835260019485019487945060209093019201615148565b90815461518d8161509f565b9261519b60405194856147b5565b818452602084019060005260206000206000915b8383106151bc5750505050565b600360206001926040516151cf81614764565b6040516151e7816151e0818a6146c6565b03826147b5565b81528486015483820152600286015460408201528152019201920191906151af565b8054600160401b81101561096857615226916001820181556145b4565b81546001600160a01b0393841660039290921b91821b9390911b1916919091179055565b60026008541461525b576002600855565b633ee5aeb560e01b60005260046000fd5b6000818152600260205260409020546001600160a01b031690811561528f575090565b637e27328960e01b60005260045260246000fd5b6007546001600160a01b031633036152b757565b63118cdaa760e01b6000523360045260246000fd5b90602090604051906152de83836147b5565b600082526001600160a01b038416938415614fe25760008281526002855260018060a01b036040822054168387827fddf252ad1be2c89b69c2b068fc378daa952ba7f163c4a11628f55a4df523b3ef81151595866154b2575b83815260038b5260408082208054600101905585825260028c52812080546001600160a01b0319168517905580a45061549c573b615376575b50505050565b916153b491819495936040519384928392630a85bd0160e11b845233600485015260006024850152604484015260806064840152608483019061458f565b03816000885af18091600091615457575b509061541e5750503d15615416573d906153de826148b3565b916153ec60405193846147b5565b82523d60008284013e5b815191826154135783633250574960e11b60005260045260246000fd5b01fd5b6060906153f6565b909291506001600160e01b03191663757a42ff60e11b01615443575038808080615370565b633250574960e11b60005260045260246000fd5b8481813d8311615495575b61546c81836147b5565b810103126154915751906001600160e01b03198216820361548e5750386153c5565b80fd5b5080fd5b503d615462565b6339e3563760e11b600052600060045260246000fd5b600085815260046020526040902080546001600160a01b031916905582815260038b52604081208054600019019055615337565b601f82116154f357505050565b6000526020600020906020601f840160051c8301931061552e575b601f0160051c01905b818110615522575050565b60008155600101615517565b909150819061550e565b60ff16600381146155bb576002811461559857600114615576576040516155606040826147b5565b600681526521b7b6b6b7b760d11b602082015290565b6040516155846040826147b5565b60048152635261726560e01b602082015290565b506040516155a76040826147b5565b60048152634570696360e01b602082015290565b506040516155ca6040826147b5565b60098152684c6567656e6461727960b81b602082015290565b908151811015611a65570160200190565b80156156985780816000925b615682575061560e826148b3565b9161561c60405193846147b5565b80835281601f1961562c836148b3565b013660208601375b61563d57505090565b60001981019081116108e4578091600a810660300191826030116108e457600a9260f81b6001600160f81b03191660001a9061567990866155e3565b53049081615634565b909161568f600a91614a61565b92910480615600565b506040516156a76040826147b5565b60018152600360fc1b602082015290565b604051916156c76060846147b5565b604083527f4142434445464748494a4b4c4d4e4f505152535455565758595a61626364656660208401527f6768696a6b6c6d6e6f707172737475767778797a303132333435363738392b2f6040840152815115615b2f578151600281018091116108e45760039004600281901b91906001600160fe1b038116036108e4579291615750826148b3565b9161575e60405193846147b5565b80835261576d601f19916148b3565b013660208401376000926020810191845b600386018087116108e4578251106158c95761579a86836155e3565b50600186018087116108e4576157b090836155e3565b50600286018087116108e4576157c690836155e3565b51835160009160f81c90156158b55760ff60f81b8651169185518110156158a1575085516001600160f81b03199081169190615809600683901c600316886155e3565b5116906001600160f81b03199061582390603f16886155e3565b51169160018501928386116108e45760028601908187116108e45760038701938488116108e4578b61585f6158759661586a9460001a926155e3565b5360001a918b6155e3565b5360001a91886155e3565b5360001a61588382876155e3565b53600481018091116108e45794600381018091116108e4579461577e565b634e487b7160e01b81526032600452602490fd5b634e487b7160e01b82526032600452602482fd5b919394909250600181018082116108e457835181036159cf57506158ed91926155e3565b508151600090156158a1576020818401019260ff60f81b8451169381518310156159bb5760ff60f81b8151169282518110156158a15760ff60f81b82511692518110156158a1575060ff60f81b9051169160018401938481116108e45760028101908181116108e45760038101948582116108e457603d976159b79761599e6159b0968c615993888e9b8d6159896159a99a60001a91866155e3565b5360001a926155e3565b5360001a918c6155e3565b5360001a91896155e3565b53866155e3565b53836155e3565b5390565b634e487b7160e01b83526032600452602483fd5b600282018083116108e4578451146159ea575b505050505090565b6159f7615a0092856155e3565b506000936155e3565b5082518210156158b5576020828401019260ff60f81b845116908051841015615b1b5760ff60f81b855116948151851015615b075760ff60f81b8151169151851015615b0757516001600160f81b031916946001840191828511615af3576002850190818611615adf576003860197888711615acb57615ab893889693615aa48b9997948d615a9a603d9e615aae97615ac09f1a926155e3565b53891a918d6155e3565b53861a918a6155e3565b53831a91876155e3565b5350836155e3565b5338808080806159e2565b634e487b7160e01b88526011600452602488fd5b634e487b7160e01b87526011600452602487fd5b634e487b7160e01b86526011600452602486fd5b634e487b7160e01b85526032600452602485fd5b634e487b7160e01b84526032600452602484fd5b915050604051615b406020826147b5565b6000815290565b600091825261010660205260408220600d018054925b838110615b6d5750505050600090565b60ff6040615b7b8385614927565b506001600160a01b0386166000908152600891909101602052205416615ba357600101615b5d565b50505050600190565b9190811015611a655760051b0190565b356001600160a01b038116810361036f5790565b8054600160401b81101561096857615bed91600182018155614927565b9091565b9190811015611a655760051b81013590601e198136030182121561036f5701908135916001600160401b03831161036f57602001823603811361036f579190565b8054600160401b81101561096857615c4f9160018201815561510f565b919091615d3e5780518051906001600160401b03821161096857615c7d82615c77865461468c565b866154e6565b602090601f8311600114615cd2578260409360029593615cb393600092615cc75750508160011b916000199060031b1c19161790565b84555b602081015160018501550151910155565b015190503880612527565b90601f1983169185600052816000209260005b818110615d2657509260019285926040966002989610615d0d575b505050811b018455615cb6565b015160001960f88460031b161c19169055388080615d00565b92936020600181928786015181550195019301615ce5565b634e487b7160e01b600052600060045260246000fd5b823b615d62575b5050505050565b604051630a85bd0160e11b81526001600160a01b039182166004820152918116602483015260448201939093526080606482015291169160209082908190615dae90608483019061458f565b03816000865af18091600091615e3a575b5090615e1857503d15615e11573d615dd6816148b3565b90615de460405192836147b5565b81523d6000602083013e5b80519081615e0c5782633250574960e11b60005260045260246000fd5b602001fd5b6060615def565b6001600160e01b03191663757a42ff60e11b0161544357503880808080615d5b565b6020813d602011615e75575b81615e53602093836147b5565b810103126154915751906001600160e01b03198216820361548e575038615dbf565b3d9150615e46565b60809060018060a01b038151166001600160601b0360a01b61010054161761010055602081015161010155604081015161010255606081015161010355015161010455565b815181546001600160a01b0319166001600160a01b0391909116178155602082015160018201556040820151600282015560608201516003820155608090910151600490910155565b80156108e4576000190190565b90808203615f24575050565b805482546001600160a01b0319166001600160a01b039190911617825560018082015490830155600280820154908301556003808201549083015560049081015491015556fea2646970667358221220ce1fc5b6cbc29b4bfdfbe4b25a546040bed531121af3484723941a1ad7995b0e64736f6c634300081c0033",
  "linkReferences": {},
  "deployedLinkReferences": {}
}