{
  "_format": "hh-sol-artifact-1",
  "contractName": "EtherianChronicle",
  "sourceName": "contracts/EtherianChronicles.sol",
  "abi": [
    {
      "inputs": [],
      "stateMutability": "nonpayable",
      "type": "constructor"
    },
    {
      "inputs": [],
      "name": "AlreadyVoted",
      "type": "error"
    },
    {
      "inputs": [],
      "name": "CannotAddChapterToNonActiveStory",
      "type": "error"
    },
    {
      "inputs": [],
      "name": "ChapterCannotBeAddedToLiveVote",
      "type": "error"
    },
    {
      "inputs": [],
      "name": "ChapterNotFound",
      "type": "error"
    },
    {
      "inputs": [
        {
          "internalType": "address",
          "name": "sender",
          "type": "address"
        },
        {
          "internalType": "uint256",
          "name": "tokenId",
          "type": "uint256"
        },
        {
          "internalType": "address",
          "name": "owner",
          "type": "address"
        }
      ],
      "name": "ERC721IncorrectOwner",
      "type": "error"
    },
    {
      "inputs": [
        {
          "internalType": "address",
          "name": "operator",
          "type": "address"
        },
        {
          "internalType": "uint256",
          "name": "tokenId",
          "type": "uint256"
        }
      ],
      "name": "ERC721InsufficientApproval",
      "type": "error"
    },
    {
      "inputs": [
        {
          "internalType": "address",
          "name": "approver",
          "type": "address"
        }
      ],
      "name": "ERC721InvalidApprover",
      "type": "error"
    },
    {
      "inputs": [
        {
          "internalType": "address",
          "name": "operator",
          "type": "address"
        }
      ],
      "name": "ERC721InvalidOperator",
      "type": "error"
    },
    {
      "inputs": [
        {
          "internalType": "address",
          "name": "owner",
          "type": "address"
        }
      ],
      "name": "ERC721InvalidOwner",
      "type": "error"
    },
    {
      "inputs": [
        {
          "internalType": "address",
          "name": "receiver",
          "type": "address"
        }
      ],
      "name": "ERC721InvalidReceiver",
      "type": "error"
    },
    {
      "inputs": [
        {
          "internalType": "address",
          "name": "sender",
          "type": "address"
        }
      ],
      "name": "ERC721InvalidSender",
      "type": "error"
    },
    {
      "inputs": [
        {
          "internalType": "uint256",
          "name": "tokenId",
          "type": "uint256"
        }
      ],
      "name": "ERC721NonexistentToken",
      "type": "error"
    },
    {
      "inputs": [],
      "name": "InvalidChapterStatus",
      "type": "error"
    },
    {
      "inputs": [],
      "name": "InvalidChoice",
      "type": "error"
    },
    {
      "inputs": [],
      "name": "InvalidPreviousChapterIndex",
      "type": "error"
    },
    {
      "inputs": [],
      "name": "InvalidStoryStatus",
      "type": "error"
    },
    {
      "inputs": [],
      "name": "NotStoryCollaborator",
      "type": "error"
    },
    {
      "inputs": [],
      "name": "NotStoryOwner",
      "type": "error"
    },
    {
      "inputs": [
        {
          "internalType": "address",
          "name": "owner",
          "type": "address"
        }
      ],
      "name": "OwnableInvalidOwner",
      "type": "error"
    },
    {
      "inputs": [
        {
          "internalType": "address",
          "name": "account",
          "type": "address"
        }
      ],
      "name": "OwnableUnauthorizedAccount",
      "type": "error"
    },
    {
      "inputs": [],
      "name": "PreviousChapterNotResolved",
      "type": "error"
    },
    {
      "inputs": [],
      "name": "ProposalAlreadyVoted",
      "type": "error"
    },
    {
      "inputs": [],
      "name": "ProposalVotePeriodNotOver",
      "type": "error"
    },
    {
      "inputs": [],
      "name": "ReentrancyGuardReentrantCall",
      "type": "error"
    },
    {
      "inputs": [],
      "name": "StoryNotFound",
      "type": "error"
    },
    {
      "inputs": [],
      "name": "VotingPeriodNotOver",
      "type": "error"
    },
    {
      "inputs": [],
      "name": "VotingPeriodNotStarted",
      "type": "error"
    },
    {
      "anonymous": false,
      "inputs": [
        {
          "indexed": true,
          "internalType": "address",
          "name": "owner",
          "type": "address"
        },
        {
          "indexed": true,
          "internalType": "address",
          "name": "approved",
          "type": "address"
        },
        {
          "indexed": true,
          "internalType": "uint256",
          "name": "tokenId",
          "type": "uint256"
        }
      ],
      "name": "Approval",
      "type": "event"
    },
    {
      "anonymous": false,
      "inputs": [
        {
          "indexed": true,
          "internalType": "address",
          "name": "owner",
          "type": "address"
        },
        {
          "indexed": true,
          "internalType": "address",
          "name": "operator",
          "type": "address"
        },
        {
          "indexed": false,
          "internalType": "bool",
          "name": "approved",
          "type": "bool"
        }
      ],
      "name": "ApprovalForAll",
      "type": "event"
    },
    {
      "anonymous": false,
      "inputs": [
        {
          "indexed": false,
          "internalType": "uint256",
          "name": "_fromTokenId",
          "type": "uint256"
        },
        {
          "indexed": false,
          "internalType": "uint256",
          "name": "_toTokenId",
          "type": "uint256"
        }
      ],
      "name": "BatchMetadataUpdate",
      "type": "event"
    },
    {
      "anonymous": false,
      "inputs": [
        {
          "indexed": true,
          "internalType": "uint256",
          "name": "storyId",
          "type": "uint256"
        },
        {
          "indexed": true,
          "internalType": "uint256",
          "name": "chapterId",
          "type": "uint256"
        },
        {
          "indexed": false,
          "internalType": "string",
          "name": "ipfsHash",
          "type": "string"
        },
        {
          "indexed": false,
          "internalType": "uint256",
          "name": "voteEndTime",
          "type": "uint256"
        }
      ],
      "name": "ChapterAdded",
      "type": "event"
    },
    {
      "anonymous": false,
      "inputs": [
        {
          "indexed": true,
          "internalType": "uint256",
          "name": "storyId",
          "type": "uint256"
        },
        {
          "indexed": true,
          "internalType": "uint256",
          "name": "chapterId",
          "type": "uint256"
        },
        {
          "indexed": false,
          "internalType": "uint256",
          "name": "winningChoiceIndex",
          "type": "uint256"
        },
        {
          "indexed": false,
          "internalType": "string",
          "name": "winningChoiceText",
          "type": "string"
        }
      ],
      "name": "ChapterResolved",
      "type": "event"
    },
    {
      "anonymous": false,
      "inputs": [
        {
          "indexed": true,
          "internalType": "uint256",
          "name": "storyId",
          "type": "uint256"
        },
        {
          "indexed": true,
          "internalType": "address",
          "name": "collaborator",
          "type": "address"
        }
      ],
      "name": "CollaboratorAdded",
      "type": "event"
    },
    {
      "anonymous": false,
      "inputs": [
        {
          "indexed": true,
          "internalType": "address",
          "name": "recipient",
          "type": "address"
        },
        {
          "indexed": true,
          "internalType": "uint256",
          "name": "storyId",
          "type": "uint256"
        },
        {
          "indexed": true,
          "internalType": "uint256",
          "name": "chapterId",
          "type": "uint256"
        },
        {
          "indexed": false,
          "internalType": "uint256",
          "name": "tokenId",
          "type": "uint256"
        }
      ],
      "name": "LoreFragmentMinted",
      "type": "event"
    },
    {
      "anonymous": false,
      "inputs": [
        {
          "indexed": false,
          "internalType": "uint256",
          "name": "_tokenId",
          "type": "uint256"
        }
      ],
      "name": "MetadataUpdate",
      "type": "event"
    },
    {
      "anonymous": false,
      "inputs": [
        {
          "indexed": true,
          "internalType": "address",
          "name": "previousOwner",
          "type": "address"
        },
        {
          "indexed": true,
          "internalType": "address",
          "name": "newOwner",
          "type": "address"
        }
      ],
      "name": "OwnershipTransferred",
      "type": "event"
    },
    {
      "anonymous": false,
      "inputs": [
        {
          "indexed": true,
          "internalType": "uint256",
          "name": "storyId",
          "type": "uint256"
        },
        {
          "indexed": true,
          "internalType": "address",
          "name": "voter",
          "type": "address"
        },
        {
          "indexed": false,
          "internalType": "enum EtherianChronicle.ProposalVoteType",
          "name": "voteType",
          "type": "uint8"
        }
      ],
      "name": "ProposalVoteCast",
      "type": "event"
    },
    {
      "anonymous": false,
      "inputs": [
        {
          "indexed": true,
          "internalType": "uint256",
          "name": "storyId",
          "type": "uint256"
        }
      ],
      "name": "StoryApproved",
      "type": "event"
    },
    {
      "anonymous": false,
      "inputs": [
        {
          "indexed": true,
          "internalType": "uint256",
          "name": "storyId",
          "type": "uint256"
        },
        {
          "indexed": true,
          "internalType": "address",
          "name": "writer",
          "type": "address"
        },
        {
          "indexed": false,
          "internalType": "string",
          "name": "title",
          "type": "string"
        },
        {
          "indexed": false,
          "internalType": "string",
          "name": "summary",
          "type": "string"
        },
        {
          "indexed": false,
          "internalType": "string",
          "name": "ipfsHashImage",
          "type": "string"
        }
      ],
      "name": "StoryProposed",
      "type": "event"
    },
    {
      "anonymous": false,
      "inputs": [
        {
          "indexed": true,
          "internalType": "uint256",
          "name": "storyId",
          "type": "uint256"
        }
      ],
      "name": "StoryRejected",
      "type": "event"
    },
    {
      "anonymous": false,
      "inputs": [
        {
          "indexed": true,
          "internalType": "address",
          "name": "from",
          "type": "address"
        },
        {
          "indexed": true,
          "internalType": "address",
          "name": "to",
          "type": "address"
        },
        {
          "indexed": true,
          "internalType": "uint256",
          "name": "tokenId",
          "type": "uint256"
        }
      ],
      "name": "Transfer",
      "type": "event"
    },
    {
      "anonymous": false,
      "inputs": [
        {
          "indexed": true,
          "internalType": "uint256",
          "name": "storyId",
          "type": "uint256"
        },
        {
          "indexed": true,
          "internalType": "uint256",
          "name": "chapterId",
          "type": "uint256"
        },
        {
          "indexed": true,
          "internalType": "address",
          "name": "voter",
          "type": "address"
        },
        {
          "indexed": false,
          "internalType": "uint256",
          "name": "choiceIndex",
          "type": "uint256"
        }
      ],
      "name": "VoteCast",
      "type": "event"
    },
    {
      "inputs": [
        {
          "internalType": "uint256",
          "name": "_storyId",
          "type": "uint256"
        },
        {
          "internalType": "uint256",
          "name": "_previousChapterIndex",
          "type": "uint256"
        },
        {
          "internalType": "uint256",
          "name": "_previousChapterWinningChoiceIndex",
          "type": "uint256"
        },
        {
          "internalType": "string",
          "name": "_ipfsHash",
          "type": "string"
        },
        {
          "internalType": "string[]",
          "name": "_choices",
          "type": "string[]"
        },
        {
          "internalType": "uint256",
          "name": "_voteDuration",
          "type": "uint256"
        }
      ],
      "name": "addChapter",
      "outputs": [],
      "stateMutability": "nonpayable",
      "type": "function"
    },
    {
      "inputs": [
        {
          "internalType": "uint256",
          "name": "_storyId",
          "type": "uint256"
        },
        {
          "internalType": "address",
          "name": "_collaboratorAddress",
          "type": "address"
        }
      ],
      "name": "addCollaborator",
      "outputs": [],
      "stateMutability": "nonpayable",
      "type": "function"
    },
    {
      "inputs": [
        {
          "internalType": "address",
          "name": "to",
          "type": "address"
        },
        {
          "internalType": "uint256",
          "name": "tokenId",
          "type": "uint256"
        }
      ],
      "name": "approve",
      "outputs": [],
      "stateMutability": "nonpayable",
      "type": "function"
    },
    {
      "inputs": [
        {
          "internalType": "address",
          "name": "owner",
          "type": "address"
        }
      ],
      "name": "balanceOf",
      "outputs": [
        {
          "internalType": "uint256",
          "name": "",
          "type": "uint256"
        }
      ],
      "stateMutability": "view",
      "type": "function"
    },
    {
      "inputs": [
        {
          "internalType": "uint256",
          "name": "_storyId",
          "type": "uint256"
        },
        {
          "internalType": "address",
          "name": "_addr",
          "type": "address"
        }
      ],
      "name": "checkIsCollaborator",
      "outputs": [
        {
          "internalType": "bool",
          "name": "",
          "type": "bool"
        }
      ],
      "stateMutability": "view",
      "type": "function"
    },
    {
      "inputs": [
        {
          "internalType": "string",
          "name": "_title",
          "type": "string"
        },
        {
          "internalType": "string",
          "name": "_summary",
          "type": "string"
        },
        {
          "internalType": "string",
          "name": "_ipfsHashImage",
          "type": "string"
        },
        {
          "internalType": "string",
          "name": "_ipfsHashChapter1Content",
          "type": "string"
        },
        {
          "internalType": "string[]",
          "name": "_chapter1Choices",
          "type": "string[]"
        },
        {
          "internalType": "address[]",
          "name": "_collaborators",
          "type": "address[]"
        },
        {
          "internalType": "uint256",
          "name": "_proposalVoteDuration",
          "type": "uint256"
        }
      ],
      "name": "createStoryProposal",
      "outputs": [],
      "stateMutability": "nonpayable",
      "type": "function"
    },
    {
      "inputs": [
        {
          "internalType": "uint256",
          "name": "tokenId",
          "type": "uint256"
        }
      ],
      "name": "getApproved",
      "outputs": [
        {
          "internalType": "address",
          "name": "",
          "type": "address"
        }
      ],
      "stateMutability": "view",
      "type": "function"
    },
    {
      "inputs": [
        {
          "internalType": "uint256",
          "name": "_storyId",
          "type": "uint256"
        },
        {
          "internalType": "uint256",
          "name": "_chapterIndex",
          "type": "uint256"
        }
      ],
      "name": "getChapter",
      "outputs": [
        {
          "internalType": "uint256",
          "name": "chapterId",
          "type": "uint256"
        },
        {
          "internalType": "string",
          "name": "ipfsHash",
          "type": "string"
        },
        {
          "components": [
            {
              "internalType": "string",
              "name": "text",
              "type": "string"
            },
            {
              "internalType": "uint256",
              "name": "voteCount",
              "type": "uint256"
            },
            {
              "internalType": "uint256",
              "name": "nextChapterIndex",
              "type": "uint256"
            }
          ],
          "internalType": "struct EtherianChronicle.Choice[]",
          "name": "choices",
          "type": "tuple[]"
        },
        {
          "internalType": "uint256",
          "name": "voteEndTime",
          "type": "uint256"
        },
        {
          "internalType": "uint256",
          "name": "winningChoiceIndex",
          "type": "uint256"
        },
        {
          "internalType": "bool",
          "name": "isResolved",
          "type": "bool"
        },
        {
          "internalType": "uint256",
          "name": "voteCountSum",
          "type": "uint256"
        }
      ],
      "stateMutability": "view",
      "type": "function"
    },
    {
      "inputs": [
        {
          "internalType": "uint256",
          "name": "_storyId",
          "type": "uint256"
        }
      ],
      "name": "getCurrentChapterIndex",
      "outputs": [
        {
          "internalType": "uint256",
          "name": "",
          "type": "uint256"
        }
      ],
      "stateMutability": "view",
      "type": "function"
    },
    {
      "inputs": [
        {
          "internalType": "uint256",
          "name": "_storyId",
          "type": "uint256"
        }
      ],
      "name": "getProposalVoteCounts",
      "outputs": [
        {
          "internalType": "uint256",
          "name": "yesVotes",
          "type": "uint256"
        },
        {
          "internalType": "uint256",
          "name": "noVotes",
          "type": "uint256"
        }
      ],
      "stateMutability": "view",
      "type": "function"
    },
    {
      "inputs": [
        {
          "internalType": "uint256",
          "name": "_storyId",
          "type": "uint256"
        }
      ],
      "name": "getStoryCollaborators",
      "outputs": [
        {
          "internalType": "address[]",
          "name": "",
          "type": "address[]"
        }
      ],
      "stateMutability": "view",
      "type": "function"
    },
    {
      "inputs": [],
      "name": "getTotalStories",
      "outputs": [
        {
          "internalType": "uint256",
          "name": "",
          "type": "uint256"
        }
      ],
      "stateMutability": "view",
      "type": "function"
    },
    {
      "inputs": [
        {
          "internalType": "uint256",
          "name": "_storyId",
          "type": "uint256"
        },
        {
          "internalType": "uint256",
          "name": "_chapterIndex",
          "type": "uint256"
        },
        {
          "internalType": "address",
          "name": "_voter",
          "type": "address"
        }
      ],
      "name": "hasVotedOnChapter",
      "outputs": [
        {
          "internalType": "bool",
          "name": "",
          "type": "bool"
        }
      ],
      "stateMutability": "view",
      "type": "function"
    },
    {
      "inputs": [
        {
          "internalType": "uint256",
          "name": "_storyId",
          "type": "uint256"
        },
        {
          "internalType": "address",
          "name": "_voter",
          "type": "address"
        }
      ],
      "name": "hasVotedOnProposal",
      "outputs": [
        {
          "internalType": "bool",
          "name": "",
          "type": "bool"
        }
      ],
      "stateMutability": "view",
      "type": "function"
    },
    {
      "inputs": [
        {
          "internalType": "address",
          "name": "owner",
          "type": "address"
        },
        {
          "internalType": "address",
          "name": "operator",
          "type": "address"
        }
      ],
      "name": "isApprovedForAll",
      "outputs": [
        {
          "internalType": "bool",
          "name": "",
          "type": "bool"
        }
      ],
      "stateMutability": "view",
      "type": "function"
    },
    {
      "inputs": [
        {
          "internalType": "address",
          "name": "_recipient",
          "type": "address"
        },
        {
          "internalType": "uint256",
          "name": "_storyId",
          "type": "uint256"
        },
        {
          "internalType": "uint256",
          "name": "_chapterId",
          "type": "uint256"
        },
        {
          "internalType": "string",
          "name": "_tokenURI",
          "type": "string"
        }
      ],
      "name": "mintLoreFragment",
      "outputs": [],
      "stateMutability": "nonpayable",
      "type": "function"
    },
    {
      "inputs": [],
      "name": "name",
      "outputs": [
        {
          "internalType": "string",
          "name": "",
          "type": "string"
        }
      ],
      "stateMutability": "view",
      "type": "function"
    },
    {
      "inputs": [],
      "name": "owner",
      "outputs": [
        {
          "internalType": "address",
          "name": "",
          "type": "address"
        }
      ],
      "stateMutability": "view",
      "type": "function"
    },
    {
      "inputs": [
        {
          "internalType": "uint256",
          "name": "tokenId",
          "type": "uint256"
        }
      ],
      "name": "ownerOf",
      "outputs": [
        {
          "internalType": "address",
          "name": "",
          "type": "address"
        }
      ],
      "stateMutability": "view",
      "type": "function"
    },
    {
      "inputs": [],
      "name": "renounceOwnership",
      "outputs": [],
      "stateMutability": "nonpayable",
      "type": "function"
    },
    {
      "inputs": [
        {
          "internalType": "uint256",
          "name": "_storyId",
          "type": "uint256"
        },
        {
          "internalType": "uint256",
          "name": "_chapterIndex",
          "type": "uint256"
        }
      ],
      "name": "resolveChapter",
      "outputs": [],
      "stateMutability": "nonpayable",
      "type": "function"
    },
    {
      "inputs": [
        {
          "internalType": "uint256",
          "name": "_storyId",
          "type": "uint256"
        }
      ],
      "name": "resolveProposal",
      "outputs": [],
      "stateMutability": "nonpayable",
      "type": "function"
    },
    {
      "inputs": [
        {
          "internalType": "address",
          "name": "from",
          "type": "address"
        },
        {
          "internalType": "address",
          "name": "to",
          "type": "address"
        },
        {
          "internalType": "uint256",
          "name": "tokenId",
          "type": "uint256"
        }
      ],
      "name": "safeTransferFrom",
      "outputs": [],
      "stateMutability": "nonpayable",
      "type": "function"
    },
    {
      "inputs": [
        {
          "internalType": "address",
          "name": "from",
          "type": "address"
        },
        {
          "internalType": "address",
          "name": "to",
          "type": "address"
        },
        {
          "internalType": "uint256",
          "name": "tokenId",
          "type": "uint256"
        },
        {
          "internalType": "bytes",
          "name": "data",
          "type": "bytes"
        }
      ],
      "name": "safeTransferFrom",
      "outputs": [],
      "stateMutability": "nonpayable",
      "type": "function"
    },
    {
      "inputs": [
        {
          "internalType": "address",
          "name": "operator",
          "type": "address"
        },
        {
          "internalType": "bool",
          "name": "approved",
          "type": "bool"
        }
      ],
      "name": "setApprovalForAll",
      "outputs": [],
      "stateMutability": "nonpayable",
      "type": "function"
    },
    {
      "inputs": [
        {
          "internalType": "uint256",
          "name": "",
          "type": "uint256"
        }
      ],
      "name": "stories",
      "outputs": [
        {
          "internalType": "uint256",
          "name": "storyId",
          "type": "uint256"
        },
        {
          "internalType": "address payable",
          "name": "writer",
          "type": "address"
        },
        {
          "internalType": "string",
          "name": "title",
          "type": "string"
        },
        {
          "internalType": "string",
          "name": "summary",
          "type": "string"
        },
        {
          "internalType": "string",
          "name": "ipfsHashImage",
          "type": "string"
        },
        {
          "internalType": "enum EtherianChronicle.StoryStatus",
          "name": "status",
          "type": "uint8"
        },
        {
          "internalType": "uint256",
          "name": "proposalVoteEndTime",
          "type": "uint256"
        },
        {
          "internalType": "uint256",
          "name": "proposalYesVotes",
          "type": "uint256"
        },
        {
          "internalType": "uint256",
          "name": "proposalNoVotes",
          "type": "uint256"
        },
        {
          "internalType": "uint256",
          "name": "currentChapterIndex",
          "type": "uint256"
        }
      ],
      "stateMutability": "view",
      "type": "function"
    },
    {
      "inputs": [
        {
          "internalType": "uint256",
          "name": "",
          "type": "uint256"
        }
      ],
      "name": "storyIdToCurrentChapterIndex",
      "outputs": [
        {
          "internalType": "uint256",
          "name": "",
          "type": "uint256"
        }
      ],
      "stateMutability": "view",
      "type": "function"
    },
    {
      "inputs": [
        {
          "internalType": "bytes4",
          "name": "interfaceId",
          "type": "bytes4"
        }
      ],
      "name": "supportsInterface",
      "outputs": [
        {
          "internalType": "bool",
          "name": "",
          "type": "bool"
        }
      ],
      "stateMutability": "view",
      "type": "function"
    },
    {
      "inputs": [],
      "name": "symbol",
      "outputs": [
        {
          "internalType": "string",
          "name": "",
          "type": "string"
        }
      ],
      "stateMutability": "view",
      "type": "function"
    },
    {
      "inputs": [
        {
          "internalType": "uint256",
          "name": "tokenId",
          "type": "uint256"
        }
      ],
      "name": "tokenURI",
      "outputs": [
        {
          "internalType": "string",
          "name": "",
          "type": "string"
        }
      ],
      "stateMutability": "view",
      "type": "function"
    },
    {
      "inputs": [
        {
          "internalType": "address",
          "name": "from",
          "type": "address"
        },
        {
          "internalType": "address",
          "name": "to",
          "type": "address"
        },
        {
          "internalType": "uint256",
          "name": "tokenId",
          "type": "uint256"
        }
      ],
      "name": "transferFrom",
      "outputs": [],
      "stateMutability": "nonpayable",
      "type": "function"
    },
    {
      "inputs": [
        {
          "internalType": "address",
          "name": "newOwner",
          "type": "address"
        }
      ],
      "name": "transferOwnership",
      "outputs": [],
      "stateMutability": "nonpayable",
      "type": "function"
    },
    {
      "inputs": [
        {
          "internalType": "uint256",
          "name": "_storyId",
          "type": "uint256"
        },
        {
          "internalType": "uint256",
          "name": "_chapterIndex",
          "type": "uint256"
        },
        {
          "internalType": "uint256",
          "name": "_choiceIndex",
          "type": "uint256"
        }
      ],
      "name": "voteOnChapter",
      "outputs": [],
      "stateMutability": "nonpayable",
      "type": "function"
    },
    {
      "inputs": [
        {
          "internalType": "uint256",
          "name": "_storyId",
          "type": "uint256"
        },
        {
          "internalType": "enum EtherianChronicle.ProposalVoteType",
          "name": "_voteType",
          "type": "uint8"
        }
      ],
      "name": "voteOnProposal",
      "outputs": [],
      "stateMutability": "nonpayable",
      "type": "function"
    }
  ],
  "bytecode": "0x6080604052346103a857604080519081016001600160401b038111828210176102b5576040908152601482527f457468657269616e4c6f7265467261676d656e74000000000000000000000000602083015280519081016001600160401b038111828210176102b557604052600381526222a62360e91b602082015281516001600160401b0381116102b557600054600181811c9116801561039e575b602082101461029557601f811161033a575b50602092601f82116001146102d657928192936000926102cb575b50508160011b916000199060031b1c1916176000555b80516001600160401b0381116102b557600154600181811c911680156102ab575b602082101461029557601f8111610230575b50602091601f82116001146101cc579181926000926101c1575b50508160011b916000199060031b1c1916176001555b33156101ab5760078054336001600160a01b03198216811790925560405191906001600160a01b03167f8be0079c531659141344cd1fd0a4f28419497f9722a3daafe3b4186f6b6457e0600080a3600160085560006009556000600a55612e7290816103ae8239f35b631e4fbdf760e01b600052600060045260246000fd5b01519050388061012c565b601f198216926001600052806000209160005b858110610218575083600195106101ff575b505050811b01600155610142565b015160001960f88460031b161c191690553880806101f1565b919260206001819286850151815501940192016101df565b60016000527fb10e2d527612073b26eecdfd717e6a320cf44b4afac2b0732d9fcbe2b7fa0cf6601f830160051c8101916020841061028b575b601f0160051c01905b81811061027f5750610112565b60008155600101610272565b9091508190610269565b634e487b7160e01b600052602260045260246000fd5b90607f1690610100565b634e487b7160e01b600052604160045260246000fd5b0151905038806100c9565b601f1982169360008052806000209160005b8681106103225750836001959610610309575b505050811b016000556100df565b015160001960f88460031b161c191690553880806102fb565b919260206001819286850151815501940192016102e8565b600080527f290decd9548b62a8d60345a988386fc84ba6bc95484008f6362f93160ef3e563601f830160051c81019160208410610394575b601f0160051c01905b81811061038857506100ae565b6000815560010161037b565b9091508190610372565b90607f169061009c565b600080fdfe60e0604052600436101561001257600080fd5b60003560e01c806262804e146123ec57806301ffc9a71461236457806306fdde03146122bf578063081812fc14612281578063095ea7b31461219257806315f07bd014612174578063179d1d9a14611db157806321ba6ef614611d0c57806323b872dd14611cf557806342842e0e14611cc557806344128457146115255780634afe4414146114d657806356dfde3d146114aa578063600303d81461142d5780636352211e146113fd57806370a08231146113a7578063715018a61461134a5780637c4f715c146111e75780637ca98fe7146111745780638a3b6ab8146110675780638cc05fdd14610ecc5780638da5cb5b14610ea357806395d89b4114610dd6578063a22cb46514610d35578063b32d90b314610b43578063b58c10c414610a62578063b88d4fde146109f5578063c87b56dd146109be578063cd032b2114610966578063d4bd5a0d14610867578063e985e9c51461080c578063ef4cb7a7146103bd578063efafb22e146102205763f2fde38b1461019157600080fd5b3461021b57602036600319011261021b576101aa612541565b6101b2612a9f565b6001600160a01b0316801561020557600780546001600160a01b0319811683179091556001600160a01b03167f8be0079c531659141344cd1fd0a4f28419497f9722a3daafe3b4186f6b6457e0600080a3005b631e4fbdf760e01b600052600060045260246000fd5b600080fd5b3461021b57604036600319011261021b57602435600435600382101561021b57610248612a46565b6000818152600b60205260409020600101546001600160a01b0316156103ac5780600052600b60205260406000209160ff60068401541660058110156103305761039b57600783015442101561038a5733600090815260088401602081905260409091205460ff1660038110156103305761037957600090821561036a5733825260205260409020805460ff191660ff83161790556000926000198201610346576009016102f681546127ac565b90555b604051926103305782527f5742bf7a0a9669547e2c74d5fd58cdcd344fc543d9b0f413c02d158e82c352d360203393a36001600855005b634e487b7160e01b600052602160045260246000fd5b60028214610355575b506102f9565b600a0161036281546127ac565b90558361034f565b639c45400160e01b8252600482fd5b633dc416fb60e01b60005260046000fd5b637f6cb88d60e01b60005260046000fd5b63cb99ec6360e01b60005260046000fd5b637dc66bf560e11b60005260046000fd5b3461021b5760c036600319011261021b576024356004356044356064356001600160401b03811161021b576103f690369060040161256d565b90916084356001600160401b03811161021b576104179036906004016125d4565b60a4359291610424612a46565b6000878152600b60209081526040808320338452600d0190915290205460ff1615806107e8575b6107d7576000878152600b60205260409020600101546001600160a01b0316156103ac5786600052600b60205260406000209260ff6006850154166005811015610330576001036107c657600c84018054998a8110156107a4576104af9082612790565b5060ff600682015416156107b557826005820154036107a45760018b1180610787575b6107765786156107315787156106e05760026105016105099460038e946104fb858b1015612962565b016129db565b500155612b3e565b5091888355876001840155600283016001600160401b0387116106ca5761053a87610534835461261a565b83612ac8565b600087601f8111600114610662578061056992600091610657575b508160011b916000199060031b1c19161790565b9055918893925b61057a8642612a39565b600483015560001960058301556006820160ff19815416905560006008830155600360009201915b81811061060557858a7f0baadfbae2e1da6baee5ce83cd86a13431a3891f835b953b86990f5d278284828b8b6105de8c86600b8d015542612a39565b6105f56040519384936040855260408501916129ba565b9060208301520390a36001600855005b8394955061064b61063461061e83856001969798612b5f565b91906040519261062d846126d7565b369161272e565b815260006020820152600019604082015285612ba0565b019089949392916105a2565b90508a01358d610555565b50818152602081209088601f198116825b8c8282106106b057505010610696575b5050600187811b01905591889392610570565b89013560001960038a901b60f8161c191690558a80610683565b84013585556001909401936020938401938c935001610673565b634e487b7160e01b600052604160045260246000fd5b60405162461bcd60e51b8152602060048201526024808201527f4368617074657220636f6e74656e7420686173682063616e6e6f7420626520656044820152636d70747960e01b6064820152608490fd5b60405162461bcd60e51b815260206004820152601e60248201527f566f7465206475726174696f6e206d75737420626520706f73697469766500006044820152606490fd5b6310b5480560e21b60005260046000fd5b5060ff600661079a600b89015485612790565b50015416156104d2565b631f8c06ff60e11b60005260046000fd5b630ef613a360e31b60005260046000fd5b630143fc9d60e21b60005260046000fd5b63712f99f760e01b60005260046000fd5b506000878152600b60205260409020600101546001600160a01b031633141561044b565b3461021b57604036600319011261021b57610825612541565b61082d612557565b9060018060a01b0316600052600560205260406000209060018060a01b0316600052602052602060ff604060002054166040519015158152f35b3461021b57604036600319011261021b57600435610883612557565b6000828152600b60205260409020600101546001600160a01b03163303610955576000828152600b60205260409020600101546001600160a01b0316156103ac5781600052600b6020526040600020600d81019060018060a01b0383166000528160205260ff60406000205416156108f757005b600583916109249360018060a01b0384166000526020526040600020600160ff19825416179055016129f7565b6001600160a01b0316907f4486767bf1b4c9809ec2021de5f1555d0a96d0cc9d7c3008bfafd13f3c69ca8c600080a3005b6379c000df60e11b60005260046000fd5b3461021b57602036600319011261021b576004356000818152600b60205260409020600101546001600160a01b0316156103ac57600052600b602052604080600020600a600982015491015482519182526020820152f35b3461021b57602036600319011261021b576109f16109dd600435612dff565b604051918291602083526020830190612502565b0390f35b3461021b57608036600319011261021b57610a0e612541565b610a16612557565b90604435606435926001600160401b03841161021b573660238501121561021b57610a4e610a6094369060248160040135910161272e565b92610a5a8383836127d1565b33612cc2565b005b3461021b57602036600319011261021b576004356000818152600b60205260409020600101546001600160a01b0316156103ac57600052600b60205260056040600020016040518060208354918281520190819360005260206000209060005b818110610b245750505081610ad89103826126f2565b6040519182916020830190602084525180915260408301919060005b818110610b02575050500390f35b82516001600160a01b0316845285945060209384019390920191600101610af4565b82546001600160a01b0316845260209093019260019283019201610ac2565b3461021b57610b5136612604565b6000828152600b60205260409020600101549091906001600160a01b0316156103ac5780600052600b602052600c60406000200154821015610d2457600291610ba991600052600b602052600c604060002001612790565b5080549060038101906004810154600582015460ff60068401541691610be5600885015494610bde604051809a819301612654565b03886126f2565b8454966001600160401b0388116106ca5760405197610c0a60208260051b018a6126f2565b80895260208901809760005260206000206000915b838310610cd75750505050610c459060405197885260e0602089015260e0880190612502565b96868803604088015251808852602088019060208160051b8a010196916000905b828210610c8e575050505085965060608601526080850152151560a084015260c08301520390f35b909192976020806001928d601f199082030185528b5190604080610cbb8451606085526060850190612502565b93858101518685015201519101529a0192019201909291610c66565b60036020600192604051610cea816126d7565b604051610d0281610cfb818a612654565b03826126f2565b8152848601548382015260028601546040820152815201920192019190610c1f565b6319786f5560e31b60005260046000fd5b3461021b57604036600319011261021b57610d4e612541565b6024359081151580920361021b576001600160a01b0316908115610dc157336000526005602052604060002082600052602052604060002060ff1981541660ff83161790556040519081527f17307eab39ab6107e8899845ad3d59bd9653f200f220920489ca2b5937696c3160203392a3005b50630b61174360e31b60005260045260246000fd5b3461021b57600036600319011261021b576040516000600154610df88161261a565b8084529060018116908115610e7f5750600114610e20575b6109f1836109dd818503826126f2565b600160009081527fb10e2d527612073b26eecdfd717e6a320cf44b4afac2b0732d9fcbe2b7fa0cf6939250905b808210610e65575090915081016020016109dd610e10565b919260018160209254838588010152019101909291610e4d565b60ff191660208086019190915291151560051b840190910191506109dd9050610e10565b3461021b57600036600319011261021b576007546040516001600160a01b039091168152602090f35b3461021b57606036600319011261021b57604435602435600435610eee612a46565b6000818152600b60205260409020600101546001600160a01b0316156103ac5780600052600b602052600c60406000200154821015610d245780600052600b6020526040600020610f4283600c8301612790565b509060ff60068201541660058110156103305760010361039b57600b015483036110565760ff60068201541661105657600481015442101561104557600781019060018060a01b0333166000528160205260ff604060002054166110345760038101908154861015611023576001610fbc876008946129db565b5001610fc881546127ac565b905501610fd581546127ac565b90553360008181526020928352604090819020805460ff1916600117905551948552937ff6ed5a0362706e33942c258dd867d1664e91a7653843a7c3459a857db97287ae9190a46001600855005b639c45400160e01b60005260046000fd5b637c9a1cf960e01b60005260046000fd5b630931513d60e11b60005260046000fd5b63e0f0e3fb60e01b60005260046000fd5b3461021b57602036600319011261021b57600435600052600b602052604060002080549060018060a01b0360018201541690604051916110b5836110ae8160028601612654565b03846126f2565b604051916110ca836110ae8160038501612654565b604051936110e6856110df8160048601612654565b03866126f2565b61114960ff6006840154169561113b60078501549661112d600987015495600b600a890154980154986040519c8d5260208d015261014060408d01526101408c0190612502565b908a820360608c0152612502565b9088820360808a0152612502565b93600586101561033057869560a087015260c086015260e08501526101008401526101208301520390f35b3461021b57604036600319011261021b57600435611190612557565b6000828152600b60205260409020600101549091906001600160a01b0316156103ac57600052600b602052600d6040600020019060018060a01b0316600052602052602060ff604060002054166040519015158152f35b3461021b576111f536612604565b906111fe612a46565b6000818152600b60205260409020600101546001600160a01b0316156103ac5780600052600b602052600c60406000200154821015610d245780600052600b602052604060002060ff600661125685600c8501612790565b509201541660058110156103305760010361039b57600681019081549160ff831661105657600482015442106113395760009283928460038201948554915b828110611303576005840188905560ff198516600117865589897f48be0badec74b6f8e2858cd3239fe3cf856aaafd5cb4f67a0a5bcca04e2831298a6112db818c6129db565b50906112f96040519283928352604060208401526040830190612654565b0390a36001600855005b816001611310838a6129db565b50015411611321575b600101611295565b965050600161133087876129db565b50015486611319565b6304add5b960e31b60005260046000fd5b3461021b57600036600319011261021b57611363612a9f565b600780546001600160a01b031981169091556000906001600160a01b03167f8be0079c531659141344cd1fd0a4f28419497f9722a3daafe3b4186f6b6457e08280a3005b3461021b57602036600319011261021b576001600160a01b036113c8612541565b1680156113e75760005260036020526020604060002054604051908152f35b6322718ad960e21b600052600060045260246000fd5b3461021b57602036600319011261021b57602061141b600435612a68565b6040516001600160a01b039091168152f35b3461021b57604036600319011261021b57600435611449612557565b6000828152600b60205260409020600101549091906001600160a01b0316156103ac57600052600b60205260086040600020019060018060a01b031660005260205260ff604060002054166003811015610330576020906040519015158152f35b3461021b57602036600319011261021b57600435600052600c6020526020604060002054604051908152f35b3461021b57602036600319011261021b576004356000818152600b60205260409020600101546001600160a01b0316156103ac57600052600b6020526020600b60406000200154604051908152f35b3461021b5760e036600319011261021b576004356001600160401b03811161021b5761155590369060040161256d565b9060c0526024356001600160401b03811161021b5761157890369060040161256d565b906044356001600160401b03811161021b5761159890369060040161256d565b9060a052916064356001600160401b03811161021b576115bc90369060040161256d565b906084356001600160401b03811161021b576115dc9036906004016125d4565b909160a4356001600160401b03811161021b576115fd9036906004016125d4565b611605612a46565b60c43515611c70578915611c33578615611bee578815611ba9578515611b55576116326002851015612962565b6009546080526116436080516127ac565b6009556080516000818152600b602052604090209081556001810180546001600160a01b03191633179055600281016001600160401b038c116106ca5761168e8c610534835461261a565b60008c601f8111600114611aea57806116bc92600091611add57508160011b916000199060031b1c19161790565b90555b600381016001600160401b0389116106ca576116df89610534835461261a565b600089601f8111600114611a78578061170d92600091611a6d57508160011b916000199060031b1c19161790565b90555b6001600160401b038a116106ca576117388a61172f600484015461261a565b60048401612ac8565b896000601f82116001146119f6579161176b82600b9360009586916119e957508160011b916000199060031b1c19161790565b60048201559392935b60068101805460ff1916905561178c60c43542612a39565b600782015582600982015582600a8201550155608051600052600b6020526040600020906000926005600d84019301935b8181106119995750503360008181526020939093526040909220805460ff19166001179055506117ec916129f7565b608051600052600b602052611807600c604060002001612b3e565b509360008555608051600186015560028501916001600160401b0382116106ca5761183c82611836855461261a565b85612ac8565b600090601f83116001146119325761186d929160009183611927575b50508160011b916000199060031b1c19161790565b90559190915b6000600483015560001960058301556006820160ff19815416905560006008830155600360009201915b81811061190d5787877fd7fe016101e1b4d6cdd2d7b66e1b1ca2a866958b9af7d6d66635d8bd13ab06936118f289896118e46040519660608852606088019060c0516129ba565b9186830360208801526129ba565b928084036040820152806112f933956080519560a0516129ba565b8061192161063461061e6001948689612b5f565b0161189d565b013590508b80611858565b8382526020822091601f198416815b8181106119815750908460019594939210611967575b505050811b019055919091611873565b0135600019600384901b60f8161c191690558a8080611957565b91936020600181928787013581550195019201611941565b8060406119b16119ac6001948688612b1a565b612b2a565b600090848060a01b0316815286602052208260ff198254161790556119e36119dd6119ac838688612b1a565b876129f7565b016117bd565b905060a051013538610555565b600483018152602081209150805b601f198d168110611a53575091600b916000938d601f19811610611a38575b505060018c811b016004820155939293611774565b60a0510135841960038f901b60f8161c191690558d80611a23565b90916020600181928560a051013581550193019101611a04565b90508c01358f610555565b5081815260208120908a601f198116828e5b828210611ac257505010611aa8575b5050600189811b019055611710565b8b013560001960038c901b60f8161c191690558c80611a99565b84013585556001909401936020938401938e9350018e611a8a565b905060c05101358f610555565b508181526020812090808e5b601f1981168210611b3957601f198116109050611b1d575b505060018c811b0190556116bf565b60c051013560001960038f901b60f8161c191690558c80611b0e565b9091926020600181928660c05101358155019401920190611af6565b60405162461bcd60e51b815260206004820152602660248201527f43686170746572203120636f6e74656e7420686173682063616e6e6f7420626560448201526520656d70747960d01b6064820152608490fd5b60405162461bcd60e51b815260206004820152601a60248201527f496d61676520686173682063616e6e6f7420626520656d7074790000000000006044820152606490fd5b60405162461bcd60e51b815260206004820152601760248201527f53756d6d6172792063616e6e6f7420626520656d7074790000000000000000006044820152606490fd5b60405162461bcd60e51b81526020600482015260156024820152745469746c652063616e6e6f7420626520656d70747960581b6044820152606490fd5b60405162461bcd60e51b815260206004820152602760248201527f50726f706f73616c20766f7465206475726174696f6e206d75737420626520706044820152666f73697469766560c81b6064820152608490fd5b3461021b57610a60611cd63661259a565b9060405192611ce66020856126f2565b60008452610a5a8383836127d1565b3461021b57610a60611d063661259a565b916127d1565b3461021b57606036600319011261021b576024356044356004356001600160a01b038216820361021b576000818152600b60205260409020600101546001600160a01b0316156103ac5780600052600b602052600c60406000200154831015610d2457600792611d8b91600052600b602052600c604060002001612790565b509060018060a01b031660005201602052602060ff604060002054166040519015158152f35b3461021b57608036600319011261021b57611dca612541565b6064356001600160401b03811161021b57611de990369060040161256d565b91611df2612a9f565b611dfa612a46565b600a5491611e07836127ac565b600a55602093604051611e1a86826126f2565b600081526001600160a01b03841693841561215e57867fddf252ad1be2c89b69c2b068fc378daa952ba7f163c4a11628f55a4df523b3ef878760008281526002855260018060a01b036040822054169384916002831515978861212a575b8583526003815260408320600181540190558683525260408120846001600160601b0360a01b82541617905580a450612114573b611fef575b5090611ebe91369161272e565b82600052600684526040600020908051906001600160401b0382116106ca57611eeb82611836855461261a565b8590601f8311600114611f8857611f1a929160009183611f7d5750508160011b916000199060031b1c19161790565b90555b7ff8e1a15aba9398e019f0b49df1a4fde98ee17ae345cb5f6b5e2c27f5033e8ce783604051848152a16040519182527f81e813c8b3a484afcb67e867ba5c1eac20e940fc34f1823c4fd66677bc0505a76044359360243593a46001600855005b015190508780611858565b90601f1983169184600052876000209260005b89828210611fd9575050908460019594939210611fc0575b505050811b019055611f1d565b015160001960f88460031b161c19169055868080611fb3565b6001859682939686015181550195019301611f9b565b8561202d916040979695975180938192630a85bd0160e11b835233600484015260006024840152886044840152608060648401526084830190612502565b038160008a5af180916000916120cf575b50906120975785853d1561208f573d9061205782612713565b9161206560405193846126f2565b82523d60008284013e5b8151918261208c5783633250574960e11b60005260045260246000fd5b01fd5b60609061206f565b939492936001600160e01b03191663757a42ff60e11b016120ba57611ebe611eb1565b82633250574960e11b60005260045260246000fd5b8681813d831161210d575b6120e481836126f2565b810103126121095751906001600160e01b03198216820361210657508761203e565b80fd5b5080fd5b503d6120da565b6339e3563760e11b600052600060045260246000fd5b600087815260046020526040902080546001600160a01b031916905584835260038152604083208054600019019055611e78565b633250574960e11b600052600060045260246000fd5b3461021b57600036600319011261021b576020600954604051908152f35b3461021b57604036600319011261021b576121ab612541565b6024356121b781612a68565b3315158061226e575b80612240575b61222b5781906001600160a01b0384811691167f8c5be1e5ebec7d5bd14f71427d1e84f3dd0314c0f7b2291e5b200ac8c7c3b925600080a4600090815260046020526040902080546001600160a01b0319166001600160a01b03909216919091179055005b63a9fbf51f60e01b6000523360045260246000fd5b506001600160a01b038116600090815260056020908152604080832033845290915290205460ff16156121c6565b506001600160a01b0381163314156121c0565b3461021b57602036600319011261021b5760043561229e81612a68565b506000526004602052602060018060a01b0360406000205416604051908152f35b3461021b57600036600319011261021b57604051600080546122e08161261a565b8084529060018116908115610e7f5750600114612307576109f1836109dd818503826126f2565b60008080527f290decd9548b62a8d60345a988386fc84ba6bc95484008f6362f93160ef3e563939250905b80821061234a575090915081016020016109dd610e10565b919260018160209254838588010152019101909291612332565b3461021b57602036600319011261021b5760043563ffffffff60e01b811680910361021b57602090632483248360e11b81149081156123a9575b506040519015158152f35b6380ac58cd60e01b8114915081156123db575b81156123ca575b508261239e565b6301ffc9a760e01b149050826123c3565b635b5e139f60e01b811491506123bc565b3461021b57602036600319011261021b57600435612408612a46565b6000818152600b60205260409020600101546001600160a01b0316156103ac5780600052600b6020526040600020600681019060ff82541660058110156103305761039b576007810154421061038a576009810154600a82015410156124cc5761249c600c600592600094600160ff1982541617905501600661248a82612765565b5001805460ff19166001179055612765565b5001557f6d23a3225580b0851279ce9208e1301e9e30f00118107393085dd5989c708284600080a25b6001600855005b50805460ff191660021790557f140b86da62f01bb56a1945d99ff048eb55be9874ca4805296bf0fe36c905e40e600080a26124c5565b919082518082526020808301940160005b828110612531575050600081602094950152601f8019910116010190565b8181015186820152602001612513565b600435906001600160a01b038216820361021b57565b602435906001600160a01b038216820361021b57565b9181601f8401121561021b578235916001600160401b03831161021b576020838186019501011161021b57565b606090600319011261021b576004356001600160a01b038116810361021b57906024356001600160a01b038116810361021b579060443590565b9181601f8401121561021b578235916001600160401b03831161021b576020808501948460051b01011161021b57565b604090600319011261021b576004359060243590565b90600182811c9216801561264a575b602083101461263457565b634e487b7160e01b600052602260045260246000fd5b91607f1691612629565b600092918154916126648361261a565b80835292600181169081156126ba575060011461268057505050565b60009081526020812093945091925b8383106126a0575060209250010190565b60018160209294939454838587010152019101919061268f565b915050602093945060ff929192191683830152151560051b010190565b606081019081106001600160401b038211176106ca57604052565b90601f801991011681019081106001600160401b038211176106ca57604052565b6001600160401b0381116106ca57601f01601f191660200190565b92919261273a82612713565b9161274860405193846126f2565b82948184528183011161021b578281602093846000960137010152565b80541561277a57600052602060002090600090565b634e487b7160e01b600052603260045260246000fd5b805482101561277a576000526009602060002091020190600090565b60001981146127bb5760010190565b634e487b7160e01b600052601160045260246000fd5b6001600160a01b039091169190821561215e576000828152600260205260408120546001600160a01b03169383918590331515806128ca575b507fddf252ad1be2c89b69c2b068fc378daa952ba7f163c4a11628f55a4df523b3ef9082612895575b83815260036020526040812060018154019055848152600260205260408120846001600160601b0360a01b82541617905580a46001600160a01b031680830361287b57505050565b6364283d7b60e01b60005260045260245260445260646000fd5b600085815260046020526040902080546001600160a01b03191690558281526003602052604081208054600019019055612833565b915091925080612913575b156128e457908484923861280a565b8390856128fd57602491637e27328960e01b8252600452fd5b60449163177e802f60e01b825233600452602452fd5b503385148015612941575b806128d55750838152600460205260408120546001600160a01b031633146128d5565b5084815260056020908152604080832033845290915281205460ff1661291e565b1561296957565b60405162461bcd60e51b8152602060048201526024808201527f43686170746572206d7573742068617665206174206c6561737420322063686f6044820152636963657360e01b6064820152608490fd5b908060209392818452848401376000828201840152601f01601f1916010190565b805482101561277a576000526003602060002091020190600090565b805490600160401b8210156106ca576001820180825582101561277a576000526020600020019060018060a01b03166001600160601b0360a01b825416179055565b919082018092116127bb57565b600260085414612a57576002600855565b633ee5aeb560e01b60005260046000fd5b6000818152600260205260409020546001600160a01b0316908115612a8b575090565b637e27328960e01b60005260045260246000fd5b6007546001600160a01b03163303612ab357565b63118cdaa760e01b6000523360045260246000fd5b601f8211612ad557505050565b6000526020600020906020601f840160051c83019310612b10575b601f0160051c01905b818110612b04575050565b60008155600101612af9565b9091508190612af0565b919081101561277a5760051b0190565b356001600160a01b038116810361021b5790565b8054600160401b8110156106ca57612b5b91600182018155612790565b9091565b919081101561277a5760051b81013590601e198136030182121561021b5701908135916001600160401b03831161021b57602001823603811361021b579190565b8054600160401b8110156106ca57612bbd916001820181556129db565b919091612cac5780518051906001600160401b0382116106ca57612beb82612be5865461261a565b86612ac8565b602090601f8311600114612c40578260409360029593612c2193600092612c355750508160011b916000199060031b1c19161790565b84555b602081015160018501550151910155565b015190503880611858565b90601f1983169185600052816000209260005b818110612c9457509260019285926040966002989610612c7b575b505050811b018455612c24565b015160001960f88460031b161c19169055388080612c6e565b92936020600181928786015181550195019301612c53565b634e487b7160e01b600052600060045260246000fd5b823b612cd0575b5050505050565b604051630a85bd0160e11b81526001600160a01b039182166004820152918116602483015260448201939093526080606482015291169160209082908190612d1c906084830190612502565b03816000865af18091600091612dbc575b5090612d8657503d15612d7f573d612d4481612713565b90612d5260405192836126f2565b81523d6000602083013e5b80519081612d7a5782633250574960e11b60005260045260246000fd5b602001fd5b6060612d5d565b6001600160e01b03191663757a42ff60e11b01612da857503880808080612cc9565b633250574960e11b60005260045260246000fd5b6020813d602011612df7575b81612dd5602093836126f2565b810103126121095751906001600160e01b031982168203612106575038612d2d565b3d9150612dc8565b612e0881612a68565b506000526006602052610cfb612e28604060002060405192838092612654565b6000604051612e386020826126f2565b529056fea26469706673582212202ab5496fef9b291ca6917e483b1c06c0f710d937686af90d5d3293672af8b98764736f6c634300081c0033",
  "linkReferences": {},
  "deployedLinkReferences": {}
}